:100000000C94FD010C9425020C9425020C942502FD
:100010000C9425020C9425020C9425020C942502C4
:100020000C9425020C9425020C948B120C945711FD
:100030000C9425020C9425020C9425020C942502A4
:100040000C9425020C9425020C9425020C94250294
:100050000C9425020C9425020C9425020C946F0834
:100060000C9425020C9425020C9425020C94250274
:100070000C9425020C9425020C9425020C94250264
:100080000C9425020C9425020C9425020C94250254
:100090000C9442070C9425020C9425020C94250222
:1000A0000C9425020C9425020C9425028C099109CC
:1000B0009609A009AA09F409F409F409B409BE09CA
:1000C000C809D209DF09F409E709150A180A070A5D
:1000D0000B0A110A390A390A390A1C0A200A240AA9
:1000E0002A0A2E0A390A340A00FFFFFFFFFFFF0029
:1000F0005C340100010000000119010380000000D0
:100100000A000000000000000000000000000101E3
:1001100001010101010101010101010101011C0CA9
:10012000208030E02D102830D30020E0310000186E
:10013000000000FC0048444D4920444953504C41C4
:10014000590A00000010000000000000000000003C
:10015000000000000000001000000000000000008F
:1001600000000000000000B55761747465726F7480
:100170007420656C656374726F6E69632048444DCA
:10018000492D446973706C61790A56657273696FA1
:100190006E20312E30360A6D6F7265206F6E2068CA
:1001A000747470733A2F2F6769746875622E636F69
:1001B0006D2F7761747465726F74742F48444D4964
:1001C0002D446973706C6179004552524F52004F53
:1001D0004B0000000000000000000000FF000000D5
:1001E000000000000200090F0000030401000C00E1
:1001F00000000000000000000000000000000004FB
:100200000802011040804010204080408008020415
:10021000018040201002011080102040400404049E
:10022000040403040502020202040302020202069D
:100230000606060606040402020204000000002569
:100240000028002B002E00310000000000240027B1
:10025000002A002D003000080B00020202010009F4
:100260000400000102020000052400100105240121
:10027000010104240206052406000107058103107C
:10028000004009040100020A0000000705020240C4
:10029000000007058302400000000000000000008D
:1002A000002A2B28000000000000000000000000D1
:1002B0000000000000000000002C9EB4A0A1A2A439
:1002C00034A6A7A5AE362D3738271E1F202122239E
:1002D000242526B333B62EB7B89F848586878889B0
:1002E0008A8B8C8D8E8F90919293949596979899F6
:1002F0009A9B9C9D2F3130A3AD3504050607080954
:100300000A0B0C0D0E0F10111213141516171819D5
:100310001A1B1C1DAFB1B0B5000904020001030097
:100320000000092101010001227A00070584034031
:10033000000105010902A1010901A10085050509C6
:100340001901290315002501950375018102950105
:1003500075058103050109300931350046FF0F1588
:100360000026FF0F751095028102093835004500FF
:100370001581257F750895018106C0C00501090614
:10038000A1018502050719E029E71500250175017E
:100390009508810295017508810395067508150079
:1003A00026DF000507190029DF8100C000C1808118
:1003B000C112010002020000406666B06000010147
:1003C00002000112010002000000406666B06000F9
:1003D000010102000141546D6567613332753400DB
:1003E00055534220494F20426F6172640004030953
:1003F00004000C0460066C0BC00C11241FBECFEF70
:10040000DAE0DEBFCDBF11E0A0E0B1E0E2EBF6E262
:1004100002C005900D92A234B107D9F722E0A2E400
:10042000B1E001C01D92AE38B207E1F713E0CAEFA8
:10043000D3E004C02297FE010E941A13C23FD107E5
:10044000C9F70E94CE0C0C9457130C940000089529
:10045000CF93DF93EC018091590190915A018A83E7
:1004600099279983888381E08B830E94B9086C83E4
:100470007D838E839F8361E089E00E943A0A6881D0
:10048000798189E0DF91CF910C946609CF93DF9356
:10049000EC016A8370E0798368830E94B9086C83F9
:1004A0007D838E839F836881798189E0DF91CF91FD
:1004B0000C946609609159010C94460260E00C941A
:1004C0004602FC0120813181232B11F00C945E0245
:1004D0000C945A02CF93C1E0FC0120813181232B7F
:1004E00009F0C0E0609159010E9446028C2FCF9123
:1004F0000895CF92DF92EF92FF920F931F93CF93C5
:10050000DF938C01FC01C081D181809157019091D2
:100510005801892BF1F02097E1F00E94B908F80109
:10052000C480D580E680F7806C197D098E099F090B
:1005300028EE33E040E050E00E94F612809157012F
:10054000909158012817390720F0F801128282E0B3
:100550008383F801828190E0C817D90781F0238155
:10056000C817D90734F4C20FD11D8C179D073CF46E
:1005700005C0C21BD109C817D9070CF4EC01F8015A
:1005800080819181C817D90731F0D183C083BE0122
:1005900089E00E946609CD2B61F461E08DE0DF9176
:1005A000CF911F910F91FF90EF90DF90CF900C941F
:1005B000730ADF91CF911F910F91FF90EF90DF9021
:1005C000CF9008950895CF92DF92EF92FF92F62E8A
:1005D00060E570E08FE591E00E944806E0915F01E0
:1005E000F09160010190F081E02D6F2D8FE591E099
:1005F00009958FE591E00E945D0641E050E060E5DD
:1006000070E08FE591E00E943B060E94B9086B0103
:100610007C018FE591E00E947A05892B59F40E94B4
:10062000B9086C197D098E099F09683E73408105E0
:10063000910578F38FE591E00E948205FF90EF909D
:10064000DF90CF9008951F93CF93DF931F92CDB784
:10065000DEB7162F60E570E08FE591E049830E94D8
:100660004806612F8FE591E00E94D2054981642FF1
:100670008FE591E00E94D2058FE591E00F90DF9128
:10068000CF911F910C945D069F92AF92BF92CF9233
:10069000DF92EF92FF920F931F93CF93DF936C0142
:1006A000962EB72EE42EA22E61E08DE00E94730AF2
:1006B000C92DDB2D00E010E0F12C0E151F0538F4DC
:1006C000AA2019F0FE01449103C0488101C04FEFF8
:1006D000B801C6010E94230365E070E080E090E06D
:1006E0000E94E8080F5F1F4F21960115F1E01F07D8
:1006F00021F7C92DDB2D00E010E00E151F0538F4A1
:10070000AA2019F0FE01B49004C0B88002C0BB2436
:10071000BA94B801C6010E94E302B81209C00F5F83
:100720001F4F21960115F1E01F0739F7C1E001C005
:10073000C0E060E08DE00E94730A8C2FDF91CF91C2
:100740001F910F91FF90EF90DF90CF90BF90AF90EF
:100750009F90089521E040E868EE70E00C94440317
:1007600089B185FB882780F991E0892708950E9447
:10077000B0038111FCCF08955D9A559861E085E042
:100780000E943A0A60E085E00E94730A61E08DE011
:100790000E943A0A60E08DE00E94730A40E855E248
:1007A00060E070E088E292E00E94660B4AE050E070
:1007B00060E070E088E292E00E94650E8FE591E0D3
:1007C0000E94110640EA56E861E070E08FE591E092
:1007D0000E941B0684E892E00E94F70B8FE491E0F0
:1007E0000E94480587E491E00E9428020E94B0031D
:1007F00061E085E00E94730A60E08DE00C94730A6A
:100800006FEC71E088E292E00C945F0D69EC71E0AE
:1008100088E292E00C945F0D8FE491E00E94EC047A
:1008200087E491E00E94270286E491E00C94E202C2
:10083000CF92DF92EF92FF9260E171E088E292E066
:100840000E94E80E882309F492C088E292E00E9498
:10085000E30A99278534910581F154F48D3091058F
:10086000D9F081349105F9F00A9709F080C014C0DD
:100870008335910571F14CF48834910509F077C006
:1008800087E491E00E945E0212C08435910579F000
:100890008535910561F06BC068E671E088E292E011
:1008A0000E945F0D04C087E491E00E945A02FF900D
:1008B000EF90DF90CF900C94000486E491E00E94CA
:1008C000AA038111F4CFFF90EF90DF90CF900C94AA
:1008D000060448E853E160E070E088E292E00E949C
:1008E000650E88E292E00E945B0F6B017C0177FD50
:1008F00030C087E0C816D10460F588E292E00E941B
:10090000E30A8F3371F4F601EE0FFF1FE15BFE4F38
:10091000608171814AE050E088E292E00E94D70D48
:100920001AC08D33B1F488E292E00E945B0FF601A9
:10093000EE0FFF1FE15BFE4F718360838FE491E058
:100940000E94560587E491E00E946A020E9400041A
:1009500002C00E9406044AE050E060E070E088E2D5
:1009600092E0FF90EF90DF90CF900C94650EFF9097
:10097000EF90DF90CF9008950F931F930E94B908D6
:1009800000914201109143012091440130914501B1
:100990006017710782079307D8F0DC01CB014096FE
:1009A000A11DB11D8093420190934301A093440186
:1009B000B09345010E94B003882331F087E491E0B1
:1009C0000E9461020E94B70387E491E00E947902CD
:1009D0001F910F910C941804089520E030E040E03E
:1009E000FB015191BF01842F90E0851B9109482F95
:1009F0002F5F3F4F2E30310599F70895AF92BF9288
:100A0000CF92DF92EF92FF920F931F93CF93DF93DA
:100A1000CDB7DEB72F970FB6F894DEBF0FBECDBFB0
:100A20006C018E010F5F1F4FE12CF12C5801B701B3
:100A30008EE591E00E947305F80181938F01FFEF2D
:100A4000EF1AFF0A8FE0E816F10489F7B501C60135
:100A50000E94ED049F85891309C08FE0F501D6013E
:100A600001900D928A95E1F781E001C080E02F9618
:100A70000FB6F894DEBF0FBECDBFDF91CF911F91AF
:100A80000F91FF90EF90DF90CF90BF90AF900895BF
:100A9000CF93DF93EC014EE050E062ED71E00E94F5
:100AA0003813CE01DF91CF910C94FE040F931F9366
:100AB000CF93DF93EC01BC010E94ED048E878E0181
:100AC000C0E0D0E0F80141918F01BE018EE591E0D8
:100AD0000E9476052196CF30D105A1F7DF91CF9105
:100AE0001F910F910895CB010C944113CB01642FFA
:100AF0000C94491380918F0190E020919001821B0A
:100B0000910908952091900180918F01281750F448
:100B1000E22FF0E0EF56FE4F808190E02F5F2093B0
:100B2000900108958FEF9FEF0895E09190018091DB
:100B30008F01E81730F4F0E0EF56FE4F808190E02F
:100B400008958FEF9FEF08950895CF92DF92EF926F
:100B5000FF920F931F93CF93DF937C01CB018A0108
:100B600020916B01222389F0EB016B01C40ED51E8D
:100B7000CC15DD0569F06991D701ED91FC910190EB
:100B8000F081E02DC7010995F3CF642F0E9419076A
:100B9000C801DF91CF911F910F91FF90EF90DF90EF
:100BA000CF900895CF93DF931F92CDB7DEB76983BF
:100BB00020916B012223D1F020916C01203240F072
:100BC00021E030E0FC013383228380E090E015C017
:100BD00080916D01E82FF0E0E259FE4F99819083FA
:100BE0008F5F80936D0180936C0105C061E0CE0141
:100BF00001960E94190781E090E00F90DF91CF915C
:100C00000895FC011382128248EE53E060E070E028
:100C1000448355836683778387E191E09183808362
:100C200008951092900110928F0110926D01109210
:100C30006C010C9464069A01AB0160E074E284EFED
:100C400090E00E94F6122051310941095109569550
:100C50004795379527952093B8000895862F413200
:100C600008F040E261E971E00E9482061092900172
:100C700080938F01089521E00C942E0681E08093EB
:100C80006B0160938E0110926D0110926C010895BA
:100C90000C943E060F93062F21E040916C016EE606
:100CA00071E080918E010E94C60610926D01109233
:100CB0006C0110926B010F91089561E00C944A064B
:100CC0008FE591E00C94010610921E0281E0809362
:100CD0001C0210921B0261E082E00E94730A61E034
:100CE00083E00E94730AE9EBF0E080818E7F8083CD
:100CF00080818D7F808388E48093B80085E4809331
:100D0000BC000895413208F03FC090911E0291113D
:100D1000FCCF91E090931E0220931C022FEF2093B2
:100D2000B1011092F601240F2093F50190931D025A
:100D300090911D02880F892B80931D0280911B02C8
:100D4000813041F410921B0280911D028093BB0000
:100D500085EC01C085EE8093BC0080911E0281303D
:100D6000E1F38091F601841710F44091F60127EF2A
:100D700031E0FB01D9018A2F821B841718F48D9171
:100D80008193F9CF842F089580E008950F93413225
:100D900008F046C090911E029111FCCF92E0909312
:100DA0001E0200931C029FEF9093B1011092F60176
:100DB0004093F501FB0167EF71E0DB019A2F961B71
:100DC000941718F491919D93F9CF10921D02909170
:100DD0001D02880F892B80931D0280911B02813098
:100DE00041F410921B0280911D028093BB0085ECA0
:100DF00001C085EE8093BC00222321F080911E0269
:100E00008230E1F38091B1018F3F61F08091B101B7
:100E1000803251F08091B101803341F483E007C00A
:100E200081E005C080E003C082E001C084E00F9152
:100E30000895613298F420911E02243089F4609361
:100E4000D301FC0185ED91E0DC012A2F281B261738
:100E500018F421912D93F9CF80E0089581E0089551
:100E600082E0089585ED8093BC008091BC0084FDF4
:100E7000FCCF10921E02089585EC8093BC00109266
:100E80001E0208951F920F920FB60F9211242F93F6
:100E90003F934F935F936F937F938F939F93AF9302
:100EA000BF93EF93FF938091B900887F803609F458
:100EB0009CC068F5883209F45BC090F4803109F475
:100EC00054C038F4882309F4F5C0883009F44DC0C3
:100ED000F5C0883109F44CC0803209F45DC0EEC021
:100EE000803409F468C048F4803309F455C088336D
:100EF00009F0E4C08093B101A8C0803509F44FC067
:100F0000883509F45DC0883409F0D8C0D5C0883967
:100F100009F4C6C0A8F4883709F467C038F48836E5
:100F200009F463C0803709F460C0C8C0883809F488
:100F3000B7C0803909F45FC0803809F0BFC05BC01A
:100F4000803B09F485C038F4803A09F466C0883AD9
:100F500009F47EC0B3C0803C09F4A6C0883C09F403
:100F6000A3C0883B09F489C0A9C080911D0210C0AC
:100F70009091F6018091F501981770F5E091F601D6
:100F800081E08E0F8093F601F0E0E950FE4F808102
:100F90008093BB0085EC85C08093B1018DC0E0914A
:100FA000F60181E08E0F8093F6018091BB00F0E0A6
:100FB000E950FE4F80839091F6018091F5016DC05C
:100FC000E091F60181E08E0F8093F6018091BB00E5
:100FD000F0E0E950FE4F808380911C0281116CC0CB
:100FE00081E080931B0284EA60C083E080931E024C
:100FF0001092B201CFCF8091B201803208F050C080
:10100000E091B20181E08E0F8093B2018091BB002C
:10101000F0E0ED54FE4F8083BDCF8091B20180326D
:1010200030F4E091B201F0E0ED54FE4F10820E94E6
:1010300032076091B20170E0E0911702F09118025E
:1010400083EB91E009951092B2010E943C0736C0F3
:1010500084E080931E021092D4011092D301E0919B
:101060001902F0911A0209958091D301811105C0EE
:1010700081E08093D3011092D501E091D40181E009
:101080008E0F8093D401F0E0EB52FE4F808180936D
:10109000BB009091D4018091D301981708F47ACFC6
:1010A00085E88093BC000AC085EC8093BC00109258
:1010B0001E0204C01092B1010E943207FF91EF910D
:1010C000BF91AF919F918F917F916F915F914F9160
:1010D0003F912F910F900FBE0F901F9018951F9268
:1010E0000F920FB60F9211242F933F938F939F93DC
:1010F000AF93BF938091200290912102A091220290
:10110000B091230230911F0223E0230F2D3720F4EA
:101110000196A11DB11D05C026E8230F0296A11D51
:10112000B11D20931F028093200290932102A0936F
:101130002202B09323028091240290912502A09173
:101140002602B09127020196A11DB11D80932402B1
:1011500090932502A0932602B0932702BF91AF91EE
:101160009F918F913F912F910F900FBE0F901F90E5
:1011700018952FB7F8946091200270912102809108
:101180002202909123022FBF08953FB7F8948091D7
:10119000240290912502A0912602B091270226B543
:1011A000A89B05C02F3F19F00196A11DB11D3FBF9F
:1011B0006627782F892F9A2F620F711D811D911D2F
:1011C00042E0660F771F881F991F4A95D1F708954F
:1011D000CF92DF92EF92FF92CF93DF936B017C016E
:1011E0000E94C508EB01C114D104E104F10489F0A7
:1011F0000E94F5120E94C5086C1B7D0B683E73406F
:1012000090F381E0C81AD108E108F108C851DC4F19
:10121000EACFDF91CF91FF90EF90DF90CF900895CC
:10122000789484B5826084BD84B5816084BD85B5C1
:10123000826085BD85B5816085BDEEE6F0E0808188
:1012400081608083E1E8F0E01082808182608083A9
:10125000808181608083E0E8F0E08081816080832C
:10126000E1E9F0E080818260808380818160808319
:10127000E0E9F0E0808181608083E1ECF0E0808152
:1012800084608083808182608083808181608083AC
:10129000E3ECF0E0808181608083E0ECF0E080812D
:1012A00082608083E2ECF0E0808181608083EAE705
:1012B000F0E080818460808380818260808380818F
:1012C0008160808380818068808308951F93CF939D
:1012D000DF93182FEB0161E00E943A0A209711F486
:1012E00060E004C0CF3FD10539F461E0812FDF9188
:1012F000CF911F910C94730AE12FF0E0EF51FE4F54
:10130000449150E0FA013197EF30F10508F06CC0DC
:10131000EA5AFF4F0C94181384B5806884BDC7BD8A
:1013200068C084B5806284BDC8BD63C08091800000
:10133000806880938000D0938900C093880059C052
:1013400080918000806280938000D0938B00C09356
:101350008A004FC080918000886080938000D09385
:101360008D00C0938C0045C0809190008068809370
:101370009000D0939900C09398003BC0809190005A
:10138000806280939000D0939B00C0939A0031C0FC
:1013900080919000886080939000D0939D00C093CE
:1013A0009C0027C08091C00080688093C00080911D
:1013B000C0008F7B8093C000C093CF001AC0809183
:1013C000C00080628093C000C093D00012C08091A2
:1013D000C20088608093C2008091C2008B7F80939E
:1013E000C200C093D20005C0C038D1050CF07DCF3B
:1013F00077CFDF91CF911F91089590E0FC01319755
:10140000EF30F105B0F5EB59FF4F0C9418138091B4
:1014100080008F7703C0809180008F7D8093800053
:10142000089580918000877FF9CF84B58F7702C0BF
:1014300084B58F7D84BD0895809190008F7707C01B
:10144000809190008F7D03C080919000877F809372
:10145000900008958091C0008F7703C08091C000F4
:101460008F7D8093C00008958091C200877F809314
:10147000C2000895CF93DF9390E0FC01E150FE4F4E
:101480002491FC01E35EFD4F8491882349F190E0B3
:10149000880F991FFC01E75BFD4FA591B491855C16
:1014A0009D4FFC01C591D4919FB7611108C0F8947C
:1014B0008C91209582238C93888182230AC062308C
:1014C00051F4F8948C91322F309583238C9388813A
:1014D000822B888304C0F8948C91822B8C939FBFBD
:1014E000DF91CF9108950F931F93CF93DF931F92B6
:1014F000CDB7DEB7282F30E0F901EF51FE4F8491D0
:10150000F901E150FE4F1491F901E35EFD4F0491A2
:101510000023C9F0882321F069830E94FD096981B5
:10152000E02FF0E0EE0FFF1FE55CFD4FA591B491B9
:101530009FB7F8948C91611103C01095812301C06D
:10154000812B8C939FBF0F90DF91CF911F910F91B3
:101550000895CF93DF931F92CDB7DEB76983DC0187
:10156000ED91FC910280F381E02D41E050E0BE015D
:101570006F5F7F4F09950F90DF91CF910895CF93C3
:10158000DF93EC018C859D8597FF05C082E00E946A
:101590002D109D878C878C859D85DF91CF91089537
:1015A00083E00C948112FC018485958597FD06C02B
:1015B00082E00E94D60F90E00196089582E00E949A
:1015C000D60F90E00895FC018485958597FD05C0B0
:1015D0002FEF3FEF35872487089582E00C942D107C
:1015E000CF93DF93EC0180910D01882331F083E0EC
:1015F0000E945E101816190634F081E090E09B837B
:101600008A8380E090E0DF91CF910895FC012081F2
:101610002E5F208342E450E067E572E080E80C949E
:10162000F810FC0181819081913A59F4813209F0DE
:101630003CC047E050E066E071E080E00E94F810B6
:1016400043C0913291F5803239F467E070E086E072
:1016500091E00E94291106C0823209F035C08281D2
:1016600080930D018091060190910701A0910801DE
:10167000B0910901803B9440A105B105C1F480916E
:101680000D0180FD14C087E797E7909301088093D0
:1016900000082BE088E190E00FB6F894A8958093BD
:1016A00060000FBE209360000FC080E0089588E1C5
:1016B0000FB6F89480936000109260000FBEA8955A
:1016C000109201081092000881E008952FEF3FEF7B
:1016D000FC0135872487089510922B0210922A026C
:1016E00088EE93E0A0E0B0E080932C0290932D026E
:1016F000A0932E02B0932F0287E291E090932902EB
:10170000809328028FEF9FEF9093350280933402ED
:101710000895FF920F931F93CF93DF93EC01F62E62
:10172000E881F9810480F581E02D09958C01E8813B
:10173000F9810680F781E02D6F2DCE010995C80152
:101740009927DF91CF911F910F91FF900895FC0190
:1017500020812F5F208349E150E069E173E080E858
:101760000C94F8104AE750E062E373E080E80C94D0
:10177000F810EF92FF920F931F93CF93DF931F9276
:10178000CDB7DEB789838B017A0141E050E0BE011D
:101790006F5F7F4F84E00E945E10A701B80184E470
:1017A0000E945E100F90DF91CF911F910F91FF90DB
:1017B000EF900895FC0191818081813A31F481E0BC
:1017C000913091F0933089F411C0813271F49B30E3
:1017D00021F4828180930F0105C09A3031F4828117
:1017E00080930E0181E00895089580E008950895A2
:1017F00048E050E082E00C94B90BCF93DF93DC011A
:10180000683818F0E8E7E60F25C0E62FF0E067FF3C
:1018100011C0E058F10981E090E001C0880FEA951D
:10182000EAF714969C911497982B14969C9314970E
:10183000E0E010C0E756FD4FE491EE2309F440C00C
:10184000E7FF08C014968C911497826014968C93CD
:101850001497EF7716968C9116978E1741F117967D
:101860008C9117978E1719F118968C9118978E17DF
:10187000F1F019968C9119978E17C9F01A968C91E0
:101880001A978E17A1F01B968C911B978E1779F0E3
:1018900080E090E0ED01C80FD91F2E81211102C018
:1018A000EE8305C0019686309105A1F709C0BD0100
:1018B0006C5F7F4FCD010E94F80B81E090E008C083
:1018C00081E090E013969C938E93129780E090E0D5
:1018D000DF91CF910895683818F0E8E7E60F25C04A
:1018E000E62FF0E067FF12C0E058F10921E030E098
:1018F00001C0220FEA95EAF72095DC0114963C918D
:101900001497322314963C93E0E00FC0E756FD4F46
:10191000E491EE2329F1E7FF08C0DC0114962C9135
:1019200014972D7F14962C93EF7720E030E0EE2370
:1019300051F0DC01A20FB31F16964C9116974E136F
:1019400002C016961C922F5F3F4F2630310579F763
:10195000BC016C5F7F4F0E94F80B81E090E008951E
:1019600080E090E00895FC011682178210861186AF
:10197000128613861482BC016C5F7F4F0C94F80BA7
:101980001092840210927B0210927A0287E391E017
:101990009093790280937802089508950E94100927
:1019A0000E94CD0C85E892E00E94D9120E94BC03EF
:1019B000C0E0D0E00E94BC042097E1F30E94000048
:1019C000F9CFCF92DF92EF92FF920F931F93CF93B5
:1019D000DF936C017A01EB01E60EF71E00E010E0E8
:1019E000CE15DF0561F06991D601ED91FC91019072
:1019F000F081E02DC6010995080F191FF1CFC8012C
:101A0000DF91CF911F910F91FF90EF90DF90CF90DA
:101A100008956115710581F0DB010D900020E9F753
:101A2000AD0141505109461B570BDC01ED91FC9172
:101A30000280F381E02D099480E090E00895EF9218
:101A4000FF920F931F93CF93DF938C01FB01C0E0B4
:101A5000D0E064917F018FEFE81AF80A662361F005
:101A6000D801ED91FC910190F081E02DC80109951C
:101A7000C80FD91FF701EDCFCE01DF91CF911F9194
:101A80000F91FF90EF900895DC01ED91FC91019092
:101A9000F081E02D09940F931F93CF93DF93EC0116
:101AA0006DE00E94440D8C016AE0CE010E94440D5D
:101AB000800F911FDF91CF911F910F9108950F9388
:101AC0001F93CF93DF93EC010E941F0D8C01CE0179
:101AD0000E944B0D800F911FDF91CF911F910F91AD
:101AE00008958F929F92AF92BF92CF92DF92EF9222
:101AF000FF920F931F93CF93DF93CDB7DEB7A197DC
:101B00000FB6F894DEBF0FBECDBF7C01C42EE52F0B
:101B1000CB01D22E19A221E02D1510F02AE0D22EF1
:101B20008E010F5D1F4F8D2C912CA12CB12C6C2D93
:101B30007E2FA50194010E94F6128C2DD29E801951
:101B40001124015011098A3014F4805D01C0895CB0
:101B5000F8018083211531054105510521F0C22E80
:101B6000E32FCA01E4CFB801C7010E94090DA19675
:101B70000FB6F894DEBF0FBECDBFDF91CF911F919E
:101B80000F91FF90EF90DF90CF90BF90AF909F901C
:101B90008F9008952115310541F4DC01ED91FC9100
:101BA0000190F081E02D642F09940C94710D0F9336
:101BB0001F93CF93DF93EC019A01AB0160E070E0DB
:101BC0000E94CA0D8C01CE010E944B0D800F911F07
:101BD000DF91CF911F910F9108950F931F93CF9392
:101BE000DF93EC010E94B908688779878A879B8711
:101BF000E881F9810680F781E02DCE01099597FFF4
:101C000015C00E94B908088519852A853B85601B87
:101C1000710B820B930B0C811D812E813F8160170C
:101C200071078207930720F38FEF9FEFDF91CF912A
:101C30001F910F9108950F931F93CF93DF93EC01A2
:101C40000E94B908688779878A879B87E881F9812C
:101C50000084F185E02DCE01099597FF15C00E9403
:101C6000B908088519852A853B85601B710B820B95
:101C7000930B0C811D812E813F81601771078207B4
:101C8000930720F38FEF9FEFDF91CF911F910F917B
:101C90000895CF93DF93EC01CE010E941B0E97FDB8
:101CA00011C08D32910571F09C01205331092A3009
:101CB000310540F0E881F9810680F781E02DCE0101
:101CC0000995EACFDF91CF910895FC0144835583B4
:101CD0006683778308956F927F928F929F92AF92DF
:101CE000BF92CF92DF92EF92FF920F931F93CF9309
:101CF000DF935C016B014A013901FB01808188237C
:101D0000E9F1E12CF12CC0E0D0E0C5010E94ED0D1D
:101D1000181619068CF5F601EC0FFD1F20813327EC
:101D200027FD30958217930711F0C0E0D0E0F6014F
:101D3000EC0FFD1F2081332727FD30958217930775
:101D400021F42196C815D905C8F40115110589F0AB
:101D5000F301EE0DFF1D2081332727FD30958217FB
:101D6000930739F4FFEFEF1AFF0AE016F10668F265
:101D700003C0E12CF12CC9CF80E001C081E0DF91EC
:101D8000CF911F910F91FF90EF90DF90CF90BF9078
:101D9000AF909F908F907F906F9008950F931F93B7
:101DA0009A01FA0101900020E9F78F010150110911
:101DB000041B150BFB0101900020E9F7AF01415016
:101DC0005109461B570B0E946B0E1F910F910895EE
:101DD00042E151E00C94CE0ECF92DF92FF920F932E
:101DE0001F93CF93DF9300D000D0CDB7DEB76C0147
:101DF000062F0E94490EFC0197FD4BC020E030E009
:101E0000A901F12C112707FD1095E017F107E9F062
:101E1000ED32F105C1F0CF01C0970A97B0F4AAE006
:101E2000B0E00E942D139B01AC01CF01AA2797FDC2
:101E3000A095BA2F280F391F4A1F5B1F2053310965
:101E40004109510902C0FF24F394D601ED91FC91A0
:101E50000680F781E02DC60129833A834B835C839A
:101E60000995C6010E941B0EFC01C09729813A8189
:101E70004B815C810A9748F2E017F10731F2FF20AD
:101E800061F066277727CB01621B730B840B950BE0
:101E900006C060E070E0CB0102C0CA01B9010F903A
:101EA0000F900F900F90DF91CF911F910F91FF90A6
:101EB000DF90CF90089561E00C94EC0E4091890280
:101EC00050918A022091870230918802421753076D
:101ED000B4F49091E8009570E1F39091E80092FDE0
:101EE00019C08093F1008091890290918A02019635
:101EF0008F739927892B19F48EEF8093E8008091D6
:101F0000890290918A02019690938A0280938902B5
:101F100081E0089580E00895CF92DF92FF920F93C1
:101F20001F93CF93DF931F92CDB7DEB7082F162FE5
:101F3000862F880F8E5F99830E945E0F83E00E9438
:101F40005E0FF02EC02E9981D92E8C2D8F198117FE
:101F500078F4F60184910E945E0F082F80E00E94C1
:101F60005E0F8023FFEFCF1ADF0A8111EECF01C091
:101F700081E00F90DF91CF911F910F91FF90DF9043
:101F8000CF900895615030F02091F100FC01208342
:101F90000196F8CF84E680938C0208952FB7FC0158
:101FA0002083F89467706093E9000895CF93DF93DE
:101FB0001F92CDB7DEB7682FCE0101960E94CE0FDB
:101FC0008091F20099819FBF0F90DF91CF9108958A
:101FD000FF920F931F93CF93DF9300D0CDB7DEB75F
:101FE000F62E8A0190918B02992311F057FF03C0BE
:101FF0008FEF9FEF2AC0682FCE0101967A830E944F
:10200000CE0F8091F20090E0A8017A8180179107AD
:102010000CF4AC01EF2DF72FF40E84E6FE1631F030
:1020200080938C029091F1009193F8CF4115510566
:1020300021F08091F200882321F089818FBFCA01AD
:1020400004C08BE68093E800F8CF0F900F90DF91EB
:10205000CF911F910F91FF900895CF93DF931F921F
:10206000CDB7DEB741E050E0BE016F5F7F4F0E9409
:10207000E80F019719F4898190E002C08FEF9FEF7C
:102080000F90DF91CF910895CF93DF931F92CDB73B
:10209000DEB7682FCE0101960E94CE0F9091E80026
:1020A000892F807295FF04C09091F20080E4891B13
:1020B00099819FBF0F90DF91CF9108956F927F928A
:1020C0008F929F92AF92BF92CF92DF92EF92FF9248
:1020D0000F931F93CF93DF931F92CDB7DEB7782E68
:1020E0007B01C42EB52E80918B02882369F0042FCA
:1020F000152F8AEFD82E872D8072982E9AE3A92E5D
:10210000872D8074882E11C08FEF9FEF56C0872DCA
:102110000E944410682E81110CC0DA94A9F361E08A
:1021200070E080E090E00E94E8080115110579F761
:102130003BC0282F30E0021713070CF4602E672DE8
:10214000CE0101960E94CE0F8091E80085FF29C044
:10215000262D30E0021B130B992039F06A948FEF83
:102160006816B1F01092F100F9CFF701862D77FED5
:1021700007C0815058F094919093F1003196F9CFB7
:10218000815020F091919093F100FACFE20EF31E6E
:102190008091E80085FF0EC00115110511F4811032
:1021A00009C089818FBFC1CF84E680938D028C2DB9
:1021B0009B2D03C0A092E800F4CF0F90DF91CF9148
:1021C0001F910F91FF90EF90DF90CF90BF90AF9055
:1021D0009F908F907F906F9008951092E9001092D9
:1021E0008A02109289029093880280938702089550
:1021F000CF92DF92FF920F931F93CF93DF9300D084
:10220000CDB7DEB7F82E8A016B0101151105B1F0CB
:10221000F601F7FE02C0849101C0808149835A8390
:102220000E945E0F01501109FFEFCF1ADF0A4981AA
:102230005A818111EACF8FEF9FEF01C0CA010F9041
:102240000F90DF91CF911F910F91FF90DF90CF9072
:1022500008951F93CF93DF931F92CDB7DEB7162F4C
:102260002091E80022FFFCCF612F79830E94C20FEA
:102270008BEF8093E800812F7981972F0F90DF916A
:10228000CF911F910895CF93DF931F92CDB7DEB703
:102290001982CE0101960E94060BCE0101960E9482
:1022A000A70B898190E00F90DF91CF9108951F9245
:1022B0000F920FB60F921124EF92FF920F931F937C
:1022C0002F933F934F935F936F937F938F939F933E
:1022D000AF93BF93EF93FF93CF93DF93CDB7DEB769
:1022E0006297DEBFCDBF1092E9008091E80083FFC6
:1022F000EBC068E0CE010A960E94C20F82EF809385
:10230000E8009A8597FF05C08091E80080FFFCCF28
:1023100003C08EEF8093E800892F807609F0B9C062
:102320008B85811105C01092F1001092F100C5C09B
:10233000282F2D7F213009F4C0C0853049F48091C9
:10234000E80080FFFCCF8C8580688093E300B5C0F7
:10235000863009F076C02D85E888F988223071F53D
:1023600080E090E02A8B0E94ED100E94431199E0DA
:102370008E010F5F1F4FF801392F11923A95E9F73F
:1023800099832A892A8391E09E8390E898879AEF1F
:1023900099872091890230918A02275F3F4F3C83C1
:1023A0002B838D83C7010E94ED1049E050E0B801F6
:1023B00080E00E94F8100E9443117FC0C7012A8B61
:1023C0000E94ED102A89223241F482E290E00E94BC
:1023D000B20B892B09F071C074C0213069F488896F
:1023E0009989089711F420938602809186028111C1
:1023F00018C063EC73E01AC0233009F062C08C850A
:10240000882391F0823021F46CE080EE93E006C0E6
:10241000813009F056C06AE085ED93E00E948C0F90
:102420004AC061EB73E002C06DEE73E061157105A7
:1024300009F447C0FB01449150E080E80E94F81085
:102440003CC0873009F43DC0883021F481E080939E
:10245000F10033C0893089F5937099F5EDEAF3E026
:1024600081E021E096E38093E9002093EB00349132
:102470003093EC009093ED008F5F3196853099F7A3
:102480008EE78093EA001092EA008C8580938B029D
:1024900014C0888999890E94ED108E85811105C02C
:1024A000CE010A960E94110B06C0823051F4CE0173
:1024B0000A960E94DA0B882321F08EEF8093E800C1
:1024C00003C081E28093EB0062960FB6F894DEBF02
:1024D0000FBECDBFDF91CF91FF91EF91BF91AF9133
:1024E0009F918F917F916F915F914F913F912F912C
:1024F0001F910F91FF90EF900F900FBE0F901F90C4
:1025000018958093E9008091F200882319F08AE3FE
:102510008093E80008951F920F920FB60F92112436
:102520002F933F934F935F936F937F938F939F93DB
:10253000AF93BF93EF93FF938091E1001092E1007E
:1025400083FF0FC01092E90091E09093EB0010928E
:10255000EC0092E39093ED0010928B0298E0909340
:10256000F00082FF15C083E00E94811280918D02ED
:10257000882329F080918D02815080938D02809173
:102580008C02882329F080918C02815080938C02E8
:10259000FF91EF91BF91AF919F918F917F916F913B
:1025A0005F914F913F912F910F900FBE0F901F9011
:1025B000189510928B0281E08093D70080EA809377
:1025C000D80082E189BD09B400FEFDCF61E070E072
:1025D00080E090E00E94E80880E98093D8008CE0D9
:1025E0008093E2001092E00008950895A1E21A2E6F
:1025F000AA1BBB1BFD010DC0AA1FBB1FEE1FFF1FA7
:10260000A217B307E407F50720F0A21BB30BE40BF6
:10261000F50B661F771F881F991F1A9469F760953D
:102620007095809590959B01AC01BD01CF010895F7
:10263000EE0FFF1F0590F491E02D0994A29FB001C9
:10264000B39FC001A39F700D811D1124911DB29FE6
:10265000700D811D1124911D08950E941E13A59FC8
:10266000900DB49F900DA49F800D911D112408958D
:10267000FB01DC0102C005900D9241505040D8F79B
:102680000895F999FECF92BD81BDF89A992780B53A
:102690000895262FF999FECF1FBA92BD81BD20BDA6
:1026A0000FB6F894FA9AF99A0FBE01960895F89425
:1026B000FFCF00008E02800000E10000000000005B
:1026C000010141540000000000D205A5057A0582F1
:1026D000059505A40500000000A90AF00AD30AE345
:1026E0000ABF0AD00A00000000890BE10CFD0B6B49
:1026F0000CB30C00FFFFFFFFFFFFFFFFFFFFFFFF1B
:102700001F932F933F934F935F936F937F938F9379
:102710009F93AF93BF93EF93FF93CF93DF93CDB787
:10272000DEB76297DEBFCDBF1092E9008091E8006E
:1027300083FFEBC068E0CE010A960E94E31182EFAE
:102740008093E8009A8597FF05C08091E80080FF9C
:10275000FCCF03C08EEF8093E800892F807609F0CC
:10276000B9C08B85811105C01092F1001092F10063
:10277000C5C0282F2D7F213009F4C0C0853049F411
:102780008091E80080FFFCCF8C8580688093E30017
:10279000B5C0863009F076C02D85E888F9882230EA
:1027A00071F580E090E02A8B0E940E130E94641362
:1027B00099E08E010F5F1F4FF801392F11923A9562
:1027C000E9F799832A892A8391E09E8390E8988784
:1027D0009AEF99872091B0023091B102275F3F4F65
:1027E0003C832B838D83C7010E940E1349E050E088
:1027F000B80180E00E9419130E9464137FC0C701D2
:102800002A8B0E940E132A89223241F482E290E040
:102810000E94B30D892B09F071C074C0213069F496
:1028200088899989089711F42093AD028091AD02AF
:10283000811118C063EC73E01AC0233009F062C044
:102840008C85882391F0823021F46CE080EE93E057
:1028500006C0813009F056C06AE085ED93E00E9421
:10286000AD114AC061EB73E002C06DEE73E061151B
:10287000710509F447C0FB01449150E080E80E94D3
:1028800019133CC0873009F43DC0883021F481E041
:102890008093F10033C0893089F5937099F5EDEAA2
:1028A000F3E081E021E096E38093E9002093EB00E0
:1028B00034913093EC009093ED008F5F319685302A
:1028C00099F78EE78093EA001092EA008C85809356
:1028D000B20214C0888999890E940E138E858111D5
:1028E00005C0CE010A960E94120D06C0823051F436
:1028F000CE010A960E94DB0D882321F08EEF809393
:10290000E80003C081E28093EB0062960FB6F89472
:10291000DEBF0FBECDBFDF91CF91FF91EF91BF9191
:10292000AF919F918F917F916F915F914F913F9167
:102930002F911F910F91FF90EF900F900FBE0F906E
:102940001F9018958093E9008091F200882319F078
:102950008AE38093E80008951F920F920FB60F92BA
:1029600011242F933F934F935F936F937F938F9394
:102970009F93AF93BF93EF93FF938091E1001092E9
:10298000E10083FF0FC01092E90091E09093EB000B
:102990001092EC0092E39093ED001092B20298E056
:1029A0009093F00082FF15C083E00E94A2148091F2
:1029B000B402882329F08091B40281508093B4023C
:1029C0008091B302882329F08091B30281508093D3
:1029D000B302FF91EF91BF91AF919F918F917F9142
:1029E0006F915F914F913F912F910F900FBE0F907C
:1029F0001F9018951092B20281E08093D70080EA70
:102A00008093D80082E189BD09B400FEFDCF61E06A
:102A100070E080E090E00E94E90A80E98093D800AD
:102A20008CE08093E2001092E00008950895A1E206
:102A30001A2EAA1BBB1BFD010DC0AA1FBB1FEE1F38
:102A4000FF1FA217B307E407F50720F0A21BB30B83
:102A5000E40BF50B661F771F881F991F1A9469F7FF
:102A600060957095809590959B01AC01BD01CF015B
:102A70000895052E97FB1EF400940E94501557FDF3
:102A800007D00E94171507FC03D04EF40C94501584
:102A900050954095309521953F4F4F4F5F4F08958A
:102AA00090958095709561957F4F8F4F9F4F0895BA
:102AB000EE0FFF1F0590F491E02D0994A29FB00145
:102AC000B39FC001A39F700D811D1124911DB29F62
:102AD000700D811D1124911D08950E945E15A59F02
:102AE000900DB49F900DA49F800D911D1124089509
:102AF000FB01DC0102C005900D9241505040D8F717
:102B00000895F999FECF92BD81BDF89A992780B5B5
:102B10000895262FF999FECF1FBA92BD81BD20BD21
:102B20000FB6F894FA9AF99A0FBE01960895F894A0
:102B3000FFCF0000B502800000E1000000000000AF
:102B4000010141540000000000D307A6077B078362
:102B5000079607A50700000000AA0CF10CD40CE4AE
:102B60000CC00CD10C000000008A0D020F1E0E8C50
:102B70000ED40E00FFFFFFFFFFFFFFFFFFFFFFFF71
:102B800081EC94E00E9440134AC06DE974E002C0F9
:102B900066ED74E06115710509F447C0FB014491CD
:102BA00050E080E80E94AC143CC0873009F43DC07E
:102BB000883021F481E08093F10033C0893089F5B9
:102BC000937099F5E9E9F4E081E021E096E38093E0
:102BD000E9002093EB0034913093EC009093ED00EA
:102BE0008F5F3196853099F78EE78093EA001092D7
:102BF000EA008C858093B40214C0888999890E9468
:102C0000A1148E85811105C0CE010A960E94770E0F
:102C100006C0823051F4CE010A960E944F0F8823DD
:102C200021F08EEF8093E80003C081E28093EB00F7
:102C300062960FB6F894DEBF0FBECDBFDF91CF9185
:102C4000FF91EF91BF91AF919F918F917F916F9184
:102C50005F914F913F912F911F910F91FF90EF90B6
:102C60000F900FBE0F901F9018958093E9008091F0
:102C7000F200882319F08AE38093E80008951F92F8
:102C80000F920FB60F9211242F933F934F935F93A0
:102C90006F937F938F939F93AF93BF93EF93FF9324
:102CA0008091E1001092E10083FF0FC01092E900D3
:102CB00091E09093EB001092EC0092E39093ED0082
:102CC0001092B40298E09093F00082FF15C083E068
:102CD0000E9435168091B602882329F08091B602B1
:102CE00081508093B6028091B502882329F08091AB
:102CF000B50281508093B502FF91EF91BF91AF91E2
:102D00009F918F917F916F915F914F913F912F9103
:102D10000F900FBE0F901F9018951092B40281E093
:102D20008093D70080EA8093D80082E189BD09B4FE
:102D300000FEFDCF61E070E080E090E00E944E0C6C
:102D400080E98093D8008CE08093E2001092E0004C
:102D500008950895A1E21A2EAA1BBB1BFD010DC008
:102D6000AA1FBB1FEE1FFF1FA217B307E407F5073B
:102D700020F0A21BB30BE40BF50B661F771F881F17
:102D8000991F1A9469F760957095809590959B01AD
:102D9000AC01BD01CF010895052E97FB1EF40094F0
:102DA0000E94E31657FD07D00E94AA1607FC03D025
:102DB0004EF40C94E31650954095309521953F4F75
:102DC0004F4F5F4F089590958095709561957F4F17
:102DD0008F4F9F4F0895EE0FFF1F0590F491E02D48
:102DE0000994A29FB001B39FC001A39F700D811DE4
:102DF0001124911DB29F700D811D1124911D089504
:102E00000E94F116A59F900DB49F900DA49F800D78
:102E1000911D11240895FB01DC0102C005900D9263
:102E200041505040D8F70895F999FECF92BD81BD29
:102E3000F89A992780B50895262FF999FECF1FBAE1
:102E400092BD81BD20BD0FB6F894FA9AF99A0FBED3
:102E500001960895F894FFCF0000B702800000E1CA
:102E600000000000000001014154002000000000AB
:102E70000038090B09E008E808FB080A090000000F
:102E8000000F0E560E390E490E250E360E000000AC
:102E900000FE0E7610920F0010481000FFFFFFFF9B
:102EA000FFFFFFFFFFFFFFFFFFFFFFFFFFFFFFFF32
:102EB000FFFFFFFFFFFFFFFFFFFFFFFFFFFFFFFF22
:102EC000FFFFFFFFFFFFFFFFFFFFFFFFFFFFFFFF12
:102ED000FFFFFFFFFFFFFFFFFFFFFFFFFFFFFFFF02
:102EE000FFFFFFFFFFFFFFFFFFFFFFFFFFFFFFFFF2
:102EF000FFFFFFFFFFFFFFFFFFFFFFFFFFFFFFFFE2
:102F0000275F3F4F3C832B838D83C7010E94A01610
:102F100049E050E0B80180E00E94AB160E94F6162E
:102F20007FC0C7012A8B0E94A0162A89223241F451
:102F300082E290E00E94C910892B09F071C074C030
:102F4000213069F488899989089711F42093AD029A
:102F50008091AD02811118C066E574E01AC023307B
:102F600009F062C08C85882391F0823021F46CE0F6
:102F700080E794E006C0813009F056C067E088E63B
:102F800094E00E943F154AC064E474E002C06DE71B
:102F900074E06115710509F447C0FB01449150E0EC
:102FA00080E80E94AB163CC0873009F43DC08830F1
:102FB00021F481E08093F10033C0893089F593706A
:102FC00099F5E0E4F4E081E021E096E38093E90004
:102FD0002093EB0034913093EC009093ED008F5FE1
:102FE0003196853099F78EE78093EA001092EA00D7
:102FF0008C858093B20214C0888999890E94A0169A
:103000008E85811105C0CE010A960E94191006C056
:10301000823051F4CE010A960E94F110882321F0EB
:103020008EEF8093E80003C081E28093EB0062960C
:103030000FB6F894DEBF0FBECDBFDF91CF91FF91E9
:10304000EF91BF91AF919F918F917F916F915F9120
:103050004F913F912F911F910F91FF90EF900F9003
:103060000FBE0F901F9018958093E9008091F20099
:10307000882319F08AE38093E80008951F920F9245
:103080000FB60F9211242F933F934F935F936F933B
:103090007F938F939F93AF93BF93EF93FF93809111
:1030A000E1001092E10083FF0FC01092E90091E06F
:1030B0009093EB001092EC0092E39093ED0010924D
:1030C000B20298E09093F00082FF15C083E00E9466
:1030D00034188091B402882329F08091B402815081
:1030E0008093B4028091B302882329F08091B302C7
:1030F00081508093B302FF91EF91BF91AF919F9167
:103100008F917F916F915F914F913F912F910F9090
:103110000FBE0F901F9018951092B20281E080931D
:10312000D70080EA8093D80082E189BD09B400FE0F
:10313000FDCF61E070E080E090E00E94BF0D80E98B
:103140008093D8008CE08093E2001092E000089514
:103150000895A1E21A2EAA1BBB1BFD010DC0AA1FD8
:10316000BB1FEE1FFF1FA217B307E407F50720F0F0
:10317000A21BB30BE40BF50B661F771F881F991F6B
:103180001A9469F760957095809590959B01AC01B4
:10319000BD01CF010895052E97FB1EF400940E94F7
:1031A000E21857FD07D00E94A91807FC03D04EF47F
:1031B0000C94E21850954095309521953F4F4F4F14
:1031C0005F4F089590958095709561957F4F8F4FD3
:1031D0009F4F0895EE0FFF1F0590F491E02D099485
:1031E000A29FB001B39FC001A39F700D811D112448
:1031F000911DB29F700D811D1124911D08950E9493
:10320000F018A59F900DB49F900DA49F800D911D67
:1032100011240895FB01DC0102C005900D9241507C
:103220005040D8F70895F999FECF92BD81BDF89A24
:10323000992780B50895262FF999FECF1FBA92BD20
:1032400081BD20BD0FB6F894FA9AF99A0FBE019687
:103250000895F894FFCF0000B50280000100E1005E
:103260000000000000010141540058303A200020C5
:1032700058313A200059303A20002059313A200084
:1032800000000000A90A7C0A510A590A6C0A7B0A4C
:1032900000000000B10FF80FDB0FEB0FC70FD80FC6
:1032A00000000000A01018123411A211EA11FFFF53
:1032B000FFFFFFFFFFFFFFFFFFFFFFFFFFFFFFFF1E
:1032C000FFFFFFFFFFFFFFFFFFFFFFFFFFFFFFFF0E
:1032D000FFFFFFFFFFFFFFFFFFFFFFFFFFFFFFFFFE
:1032E000FFFFFFFFFFFFFFFFFFFFFFFFFFFFFFFFEE
:1070000055C000006EC000006CC000006AC00000E7
:1070100068C0000066C0000064C0000062C00000DC
:1070200060C000005EC00000E4C400005AC0000060
:1070300058C0000056C0000054C0000052C00000FC
:1070400050C0000076C000004CC000004AC00000E4
:1070500048C0000046C0000044C0000042C000001C
:1070600040C000003EC000003CC000003AC000002C
:1070700038C0000036C0000034C0000032C000003C
:1070800030C000002EC000002CC000002AC000004C
:1070900028C0000026C0000024C0000022C000005C
:1070A00020C000001EC000001CC0000011241FBE34
:1070B000CFEFDAE0DEBFCDBF11E0A0E0B1E0E6E166
:1070C000FFE702C005900D92A83AB107D9F711E089
:1070D000A8EAB1E001C01D92AE3BB107E1F781D350
:1070E00018C78ECFF89410926F0010928100109202
:1070F00085001092840081E085BF15BE47980C94EE
:10710000000008952091B2013091B3012F5F3F4FED
:107110003093B3012093B201932F37FF03C08EEF5A
:10712000831B982F990F921710F447980895479A48
:1071300008951F920F920FB60F9211242F938F93E1
:107140009F93EF93FF93109285001092840080919B
:10715000A8019091A901009729F001979093A901A6
:107160008093A8018091AA019091AB01009729F02A
:1071700001979093AB018093AA01E0E0F0E0859144
:1071800094918F5F9F4F49F08091AC019091AD0138
:1071900001969093AD018093AC01FF91EF919F9187
:1071A0008F912F910F900FBE0F901F90189584E034
:1071B0008093E9000DC08091E8008B778093E80010
:1071C00003C08EB3882351F08091E80082FFF9CF8D
:1071D0008091E80085FFEFCF8091F1000895982F0E
:1071E00083E08093E9008091E80085FD0DC08091E7
:1071F000E8008E778093E80003C08EB3882361F0A7
:107200008091E80080FFF9CF9093F10084E690E050
:107210009093A9018093A80108954F925F926F9275
:107220007F928F929F92AF92BF92CF92DF92EF9216
:10723000FF920F931F93CF93DF9384E08093E90035
:107240008091E80082FF56C284E690E09093AB0103
:107250008093AA01ACDF182F853481F48CE49DE182
:107260009093AD018093AC0107B600FCFDCFF99976
:10727000FECF81E180935700E89503C0843519F46F
:1072800096DF8DE00DC28C34E1F38035D1F3843785
:1072900021F484E4A4DF80E003C2813611F489E59F
:1072A000FFC18134B1F483DF182F81DF90E0880FB4
:1072B000991FAA2797FDA095BA2F312F330F20E0F1
:1072C000442737FD4095542F822B932BA42BB52BAD
:1072D000B8C1803711F483E5E3C1833549F4C0E0D8
:1072E000D1E089917CDF21E0C730D207D1F7D9C145
:1072F000863521F481E373DF80E3D2C1833731F433
:1073000087E86DDF85E96BDF8EE1CAC18536B9F4A8
:10731000E0E0F0E093E085E090935700E89507B651
:1073200000FCFDCF80935700E89507B600FCFDCF29
:10733000E058FF4FA0E7E030FA0771F7A2CF82379D
:1073400039F4E1E0F0E089E0809357008491A8C12E
:10735000863439F4E0E0F0E089E0809357008491CE
:107360009FC18E3439F4E3E0F0E089E08093570068
:10737000849196C1813539F4E2E0F0E089E08093B0
:10738000570084918DC1823631F489E528DF80E091
:1073900026DF80E885C1823419F0873609F0E5C020
:1073A0001092AD011092AC0102DF082F00DFF82E21
:1073B000FEDE682E8554823008F071C1902F80E087
:1073C000CF2DD0E0C82BD92B10926F00173609F0C3
:1073D0004BC081E180935700E895DD24CC24C39411
:1073E0003FC0E090AE01F090AF010091B00110916C
:1073F000B101B6E46B16D9F4ED2DF0E0EE29FF29CA
:10740000E4918E2FECDEDD2081F082E090E0A0E0C0
:10741000B0E0E80EF91E0A1F1B1FE092AE01F092C9
:10742000AF010093B0011093B101DC2418C0D80162
:10743000C701B695A7959795879555D5D0DE82E07B
:1074400090E0A0E0B0E0E80EF91E0A1F1B1FE092DA
:10745000AE01F092AF010093B0011093B1012197FA
:10746000209709F0BECF7DC08090AE019090AF0113
:10747000A090B001B090B10196E4691609F05DC02A
:1074800083E0F40180935700E89507B600FCFDCF38
:1074900054C0F6E46F1661F5772031F1E090AE014B
:1074A000F090AF010091B0011091B10180DED82EB3
:1074B000CC24852D90E08C299D29F7010C01409268
:1074C0005700E895112482E090E0A0E0B0E0E80EDB
:1074D000F91E0A1F1B1FE092AE01F092AF0100934C
:1074E000B0011093B10102C062DE582E742423C093
:1074F000E090AE01F090AF010091B0011091B101A8
:1075000016950795F794E79452DE682FC701F3D4D8
:107510008091AE019091AF01A091B001B091B10105
:107520000296A11DB11D8093AE019093AF01A0936F
:10753000B001B093B101219704C0552477244424AD
:107540004394209709F0A5CF96E4691641F485E0AD
:10755000F40180935700E89507B600FCFDCF8DE05D
:107560003EDE82E080936F009CC0833471F4009112
:10757000AE011091AF011BDE90E021E0F8010C019B
:1075800020935700E89511247CCE833619F5E090BE
:10759000AE01F090AF010091B0011091B10107DE92
:1075A000F701E16090E021E00C0120935700E8959D
:1075B000112482E090E0A0E0B0E0E80EF91E0A1F7E
:1075C0001B1FE092AE01F092AF010093B001109347
:1075D000B10157CE8D3661F4E091AE01F091AF016B
:1075E00085E080935700E89507B600FCFDCF49CEB3
:1075F000823551F4E091AE01F091AF010591149103
:10760000812FEDDD802F4CC0843421F5E090AE0158
:10761000F090AF010091B0011091B101169507955E
:10762000F794E794C4DD682FC70165D48091AE015B
:107630009091AF01A091B001B091B1010296A11D4E
:10764000B11D8093AE019093AF01A093B001B093B0
:10765000B10117CE843609F5E090AE01F090AF018C
:107660000091B0011091B101D801C701B695A7955D
:107670009795879538D4B3DD82E090E0A0E0B0E044
:10768000E80EF91E0A1F1B1FE092AE01F092AF0137
:107690000093B0011093B10104C08B3111F08FE35E
:1076A0009EDD83E08093E9009091E8008091E800FE
:1076B0008E778093E80095FF04C010C08EB38823B6
:1076C000C9F08091E80080FFF9CF8091E8008E77C3
:1076D0008093E80003C08EB3882361F08091E800B6
:1076E00080FFF9CF84E08093E9008091E8008B77F8
:1076F0008093E800DF91CF911F910F91FF90EF9061
:10770000DF90CF90BF90AF909F908F907F906F90C1
:107710005F904F9008959091B601892F8F778132B5
:1077200049F58091B7018032A1F0813219F5913A83
:1077300009F58091E800877F8093E8008DE091E073
:1077400067E070E007D28091E8008B778093E800D3
:107750000895913279F48091E800877F8093E80062
:107760008DE091E067E070E059D28091E8008E777B
:107770008093E800089582E061EC42E0B1D083E0BC
:1077800061E842E1ADD084E060E842E1A9C084B79D
:10779000877F84BF88E10FB6F894809360001092D1
:1077A00060000FBE20E880E090E00FB6F8942093D0
:1077B0006100809361000FBE81E085BF92E095BFBC
:1077C0003F9AE1E6F0E0208310824798109289000A
:1077D0008AEF8093880090936F0083E0809381000C
:1077E000F0C04091000850910108109201081092D9
:1077F000000894B714BE88E10FB6F8948093600037
:10780000109260000FBE292F30E0F901E270F07095
:1078100091FD18C090FF05C0859194918F5F9F4F97
:1078200081F423FF0FC08091090190910A0148174C
:10783000590741F0E0E0F0E0859194918F5F9F4F10
:1078400009F050DCA4DF78941092AD011092AC01E5
:107850000CC0E3DC36D38091AC019091AD01815432
:107860009F4110F0109214014DDC80911401882387
:1078700081F78091E00081608093E00033DC80E05C
:1078800090E00895FA01923049F0933061F0913020
:10789000F9F485E191E022E130E01EC087E291E059
:1078A0002EE330E019C0882329F485E691E024E036
:1078B00030E012C0813029F489E691E022E230E024
:1078C0000BC0823029F48DE891E028E130E004C05B
:1078D00080E090E020E030E091838083C90108954A
:1078E0008093E9008091EB0081608093EB0010921F
:1078F000ED006093EC004093ED008091EE00881F56
:107900008827881F08958091B60188238CF403C0CE
:107910008EB38823B1F08091E80082FFF9CF809187
:10792000E8008B778093E80008958EB3882349F0B0
:107930008091E80080FFF9CF8091E8008E778093F6
:10794000E8000895EF92FF920F931F9345D04CD01B
:1079500008ED10E0F80180818F7780838081806856
:10796000808380818F7D808319BC1EBA1092B40100
:1079700080EEE82EF12CF70180818B7F8083F80167
:1079800080818160808380E060E042E0A9DFE1EEF9
:10799000F0E080818E7F8083E2EEF0E08081816084
:1079A0008083808188608083F70180818E7F8083DF
:1079B000F8018081806180831F910F91FF90EF908B
:1079C0000895E7EDF0E08081816080838AE482BFE2
:1079D00081E08093B501B6CFE8EDF0E080818E7F45
:1079E00080831092E20008951092DA001092E10074
:1079F00008951F920F920FB60F9211242F933F9369
:107A00004F935F936F937F938F939F93AF93BF93A6
:107A1000EF93FF938091DA0080FF1BC08091D80024
:107A200080FF17C08091DA008E7F8093DA0080910A
:107A3000D90080FF0BC080E189BD82E189BD09B416
:107A400000FEFDCF81E08EBB3BD203C019BC1EBA45
:107A500037D28091E10080FF17C08091E20080FF63
:107A600013C08091E2008E7F8093E2008091E2005B
:107A700080618093E2008091D80080628093D8007A
:107A800019BC85E08EBB1CD28091E10084FF2CC024
:107A90008091E20084FF28C080E189BD82E189BD38
:107AA00009B400FEFDCF8091D8008F7D8093D8006F
:107AB0008091E1008F7E8093E1008091E2008F7ED3
:107AC0008093E2008091E20081608093E2008091E7
:107AD000B401882331F48091E30087FD02C081E086
:107AE00001C084E08EBBECD18091E10083FF21C016
:107AF0008091E20083FF1DC08091E100877F809329
:107B0000E10082E08EBB1092B4018091E1008E7F93
:107B10008093E1008091E2008E7F8093E20080916B
:107B2000E20080618093E20080E060E042E0D8DE25
:107B3000C7D1FF91EF91BF91AF919F918F917F91AD
:107B40006F915F914F913F912F910F900FBE0F90CA
:107B50001F9018959C014091BC015091BD014617A2
:107B6000570718F4F90190E044C06115710511F050
:107B7000AB01F8CF8091E8008E778093E80040E079
:107B800050E0F0CF8EB3882309F444C0853009F467
:107B900043C08091E80083FF02C081E00895809196
:107BA000E80082FD31C08091E80080FF22C0809112
:107BB000F3009091F200782F60E0292F30E0262B1F
:107BC000372B07C081918093F100415050402F5FC7
:107BD0003F4F4115510519F02830310598F390E0D9
:107BE0002830310509F491E08091E8008E77809388
:107BF000E8004115510531F6992321F605C08EB3F1
:107C0000882341F0853041F08091E80082FFF7CF72
:107C100080E0089582E0089583E008959C01611555
:107C2000710529F48091E8008B778093E800F901D1
:107C300026C08EB3882391F1853091F18091E800C0
:107C400083FF02C081E008958091E80082FFF1CFB8
:107C500006C08091F10081936150704059F02091ED
:107C6000F3008091F200322F20E090E0822B932BE2
:107C7000892B79F78091E8008B778093E800611574
:107C80007105B9F605C08EB3882341F0853041F007
:107C90008091E80080FFF7CF80E0089582E00895AA
:107CA00083E008950F931F93DF93CF9300D0CDB758
:107CB000DEB7E6EBF1E08091F100819381E0EE3BED
:107CC000F807C9F728DD8091E80083FFE4C08091C0
:107CD000B6019091B701953009F46DC0963040F42B
:107CE000913081F1913070F0933009F0D4C02AC006
:107CF000983009F4A3C0993009F4B2C0963009F065
:107D0000CAC07CC0803809F4C6C0823809F0C3C03C
:107D10008091BA0187708093E9008091EB00109206
:107D2000E9002091E800277F2093E80090E025E01B
:107D3000969587952A95E1F781708093F1001092CE
:107D4000F10087C0882319F0823009F0A4C08F7138
:107D5000823009F0A0C08091B801882331F52091CC
:107D6000BA01277009F497C02093E9008091EB00D5
:107D700080FF1BC0933021F48091EB00806213C020
:107D80008091EB0080618093EB0081E090E002C085
:107D9000880F991F2A95E2F78093EA001092EA0073
:107DA0008091EB0088608093EB001092E900809155
:107DB000E800877F51C0882309F06DC01091B80199
:107DC0001F770FB7F8948091E800877F8093E800D1
:107DD0009ADD8091E80080FFFCCF8091E3008078FD
:107DE000812B8093E30080688093E300112311F4DA
:107DF00082E001C083E08EBB0FBF4DC0805882304F
:107E000008F049C08091B8019091B9016091BA0120
:107E1000AE014F5F5F4F36DDBC01009709F43BC0F8
:107E20008091E800877F8093E80089819A8192DEC3
:107E30008091E8008B778093E8002DC0803859F559
:107E40008091E800877F8093E8008091B40180935F
:107E5000F1008091E8008E778093E80054DD1BC02C
:107E60008823C9F49091B8019230A8F48091E80079
:107E7000877F8093E8009093B40145DD8091B40141
:107E8000882331F48091E30087FD02C081E001C0C6
:107E900084E08EBB70DC8091E80083FF0AC0809193
:107EA000EB0080628093EB008091E800877F8093F5
:107EB000E8000F900F90CF91DF911F910F910895DF
:107EC00008951F938EB3882361F01091E9001092FA
:107ED000E9008091E80083FF01C0E4DE1770109391
:107EE000E9001F910895F999FECF92BD81BDF89ADE
:107EF000992780B50895262FF999FECF1FBA92BD14
:107F000081BD20BD0FB6F894FA9AF99A0FBE01967A
:107F10000895F894FFCF4341544552494E410077AC
:107F200077000800000000000008011201100102A3
:107F3000000008501DB06001000201000109023E6E
:107F40000002010080320904000001020201000564
:107F50002400100104240204052406000107058200
:107F6000030800FF09040100020A000000070504DD
:107F70000210000107058302100001040309042216
:107F800003550053004200200049004F00200062CA
:107F9000006F0061007200640020002000200020BB
:107FA000000000180355006E006B006E006F007734
:107FB000006E002000200020002000000000FFFFD5
:107FC000FFFFFFFFFFFFFFFFFFFFFFFFFFFFFFFFC1
:107FD000FFFFFFFFFFFFFFFFFFFFFFFFFFFFFFFFB1
:107FE000FFFFFFFFFFFFFFFFFFFFFFFFFFFFFFFFA1
:107FF000FFFFFFFFFFFFFFFFFFFFFFFFFFFFFFFF91
:00000001FF
