:100000000C94FD010C9425020C9425020C942502FD
:100010000C9425020C9425020C9425020C942502C4
:100020000C9425020C9425020C94AC140C947813B7
:100030000C9425020C9425020C9425020C942502A4
:100040000C9425020C9425020C9425020C94250294
:100050000C9425020C9425020C9425020C94700A31
:100060000C9425020C9425020C9425020C94250274
:100070000C9425020C9425020C9425020C94250264
:100080000C9425020C9425020C9425020C94250254
:100090000C9443090C9425020C9425020C9425021F
:1000A0000C9425020C9425020C9425028D0B920BC6
:1000B000970BA10BAB0BF50BF50BF50BB50BBF0BB2
:1000C000C90BD30BE00BF50BE80B160C190C080C45
:1000D0000C0C120C3A0C3A0C3A0C1D0C210C250C91
:1000E0002B0C2F0C3A0C350C00FFFFFFFFFFFF001D
:1000F0005C340100010000000119010380000000D0
:100100000A000000000000000000000000000101E3
:100110000101010101010101010101010101AA0A1D
:10012000204230E02C10100A510420E03100001869
:10013000000000FC0048444D4920444953504C41C4
:10014000590A00000010000000000000000000003C
:10015000000000000000001000000000000000008F
:1001600000000000000000245761747465726F7411
:100170007420656C656374726F6E69632048444DCA
:10018000492D446973706C61790A56657273696FA1
:100190006E20312E30360A6D6F7265206F6E2068CA
:1001A000747470733A2F2F6769746875622E636F69
:1001B0006D2F7761747465726F74742F48444D4964
:1001C0002D446973706C6179004552524F52004F53
:1001D0004B000000000000000000B400FF00000021
:1001E000000000000200090F0000030401000C00E1
:1001F00000000000000000000000000000000004FB
:100200000802011040804010204080408008020415
:10021000018040201002011080102040400404049E
:10022000040403040502020202040302020202069D
:100230000606060606040402020204000000002569
:100240000028002B002E00310000000000240027B1
:10025000002A002D003000080B00020202010009F4
:100260000400000102020000052400100105240121
:10027000010104240206052406000107058103107C
:10028000004009040100020A0000000705020240C4
:10029000000007058302400000000000000000008D
:1002A000002A2B28000000000000000000000000D1
:1002B0000000000000000000002C9EB4A0A1A2A439
:1002C00034A6A7A5AE362D3738271E1F202122239E
:1002D000242526B333B62EB7B89F848586878889B0
:1002E0008A8B8C8D8E8F90919293949596979899F6
:1002F0009A9B9C9D2F3130A3AD3504050607080954
:100300000A0B0C0D0E0F10111213141516171819D5
:100310001A1B1C1DAFB1B0B5000904020001030097
:100320000000092101010001227A00070584034031
:10033000000105010902A1010901A10085050509C6
:100340001901290315002501950375018102950105
:1003500075058103050109300931350046FF0F1588
:100360000026FF0F751095028102093835004500FF
:100370001581257F750895018106C0C00501090614
:10038000A1018502050719E029E71500250175017E
:100390009508810295017508810395067508150079
:1003A00026DF000507190029DF8100C000C1808118
:1003B000C112010002020000406666B06000010147
:1003C00002000112010002000000406666B06000F9
:1003D000010102000141546D6567613332753400DB
:1003E00055534220494F20426F6172640004030953
:1003F0000400100461086D0DE10E11241FBECFEF43
:10040000DAE0DEBFCDBF11E0A0E0B1E0E2E3FBE265
:1004100002C005900D92A234B107D9F722E0A2E400
:10042000B1E001C01D92A53BB207E1F713E0CAEFAE
:10043000D3E004C02297FE010E945A15C23FD107A3
:10044000C9F70E94EF0E0C9497150C9400000895C4
:10045000CF93DF93EC0180918001909181018A8399
:1004600099279983888381E08B830E94BA0A6C83E1
:100470007D838E839F8361E089E00E943B0C6881CD
:10048000798189E0DF91CF910C94670BCF93DF9353
:10049000EC016A8370E0798368830E94BA0A6C83F6
:1004A0007D838E839F836881798189E0DF91CF91FD
:1004B0000C94670B609180010C94460260E00C94F0
:1004C0004602FC0120813181232B11F00C945E0245
:1004D0000C945A02CF93C1E0FC0120813181232B7F
:1004E00009F0C0E0609180010E9446028C2FCF91FC
:1004F0000895CF92DF92EF92FF920F931F93CF93C5
:10050000DF938C01FC01C081D18180917E019091AB
:100510007F01892BF1F02097E1F00E94BA0AF801DF
:10052000C480D580E680F7806C197D098E099F090B
:1005300028EE33E040E050E00E94171580917E01E4
:1005400090917F012817390720F0F801128282E08C
:100550008383F801828190E0C817D90781F0238155
:10056000C817D90734F4C20FD11D8C179D073CF46E
:1005700005C0C21BD109C817D9070CF4EC01F8015A
:1005800080819181C817D90731F0D183C083BE0122
:1005900089E00E94670BCD2B61F461E08DE0DF9173
:1005A000CF911F910F91FF90EF90DF90CF900C941F
:1005B000740CDF91CF911F910F91FF90EF90DF901E
:1005C000CF9008950895CF92DF92EF92FF92F62E8A
:1005D00060E570E086E891E00E944908E0918601BC
:1005E000F09187010190F081E02D6F2D86E891E078
:1005F000099586E891E00E945E0841E050E060E5E0
:1006000070E086E891E00E943C080E94BA0A6B0103
:100610007C0186E891E00E947B07892B59F40E94B7
:10062000BA0A6C197D098E099F09683E73408105DD
:10063000910578F386E891E00E948307FF90EF90A0
:10064000DF90CF9008951F93CF93DF931F92CDB784
:10065000DEB7162F60E570E086E891E049830E94DE
:100660004908612F86E891E00E94D3074981642FF1
:1006700086E891E00E94D30786E891E00F90DF9131
:10068000CF911F910C945E089F92AF92BF92CF9230
:10069000DF92EF92FF920F931F93CF93DF936C0142
:1006A000962EB72EE42EA22E61E08DE00E94740CEF
:1006B000C92DDB2D00E010E0F12C0E151F0538F4DC
:1006C000AA2019F0FE01449103C0488101C04FEFF8
:1006D000B801C6010E94230365E070E080E090E06D
:1006E0000E94E90A0F5F1F4F21960115F1E01F07D5
:1006F00021F7C92DDB2D00E010E00E151F0538F4A1
:10070000AA2019F0FE01B49004C0B88002C0BB2436
:10071000BA94B801C6010E94E302B81209C00F5F83
:100720001F4F21960115F1E01F0739F7C1E001C005
:10073000C0E060E08DE00E94740C8C2FDF91CF91BF
:100740001F910F91FF90EF90DF90CF90BF90AF90EF
:100750009F90089521E040E868EE70E00C94440317
:1007600089B185FB882780F991E0892708950E9447
:10077000B0038111FCCF08955D9A559861E085E042
:100780000E943B0C60E085E00E94740C61E08DE00B
:100790000E943B0C60E08DE00E94740C40E855E242
:1007A00060E070E08FE492E00E94670D4AE050E064
:1007B00060E070E08FE492E00E94861086E891E0AD
:1007C0000E94120840EA56E861E070E086E891E095
:1007D0000E941C088BEA92E00E94F80D86E791E0E7
:1007E0000E9464058EE691E00E94280287E491E071
:1007F0000E945D060E94B00361E085E00E94740CD7
:1008000060E08DE00C94740C6FEC71E08FE492E08A
:100810000C94800F69EC71E08FE492E00C94800FEF
:1008200086E791E00E9408058EE691E00E9427028B
:1008300087E491E00E948F0586E491E00C94E20247
:10084000CF92DF92EF92FF9260E171E08FE492E04D
:100850000E940911882309F4A2C08FE492E00E944B
:10086000E40C992785349105D1F154F48D3091052C
:1008700001F18134910521F10A9709F090C019C066
:1008800083359105C1F14CF48834910509F087C096
:100890008EE691E00E945E0217C084359105D1F08A
:1008A0008535910509F07BC087E491E00E949C05A5
:1008B0000BC068E671E08FE492E00E94800F04C0F4
:1008C0008EE691E00E945A02FF90EF90DF90CF9069
:1008D0000C94040487E491E00E949805F5CF86E427
:1008E00091E00E94AA038111EFCFFF90EF90DF907B
:1008F000CF900C940A0448E853E160E070E08FE484
:1009000092E00E9486108FE492E00E947C116B01BD
:100910007C0177FD36C087E0C816D10490F58FE4DE
:1009200092E00E94E40C8F3371F4F601EE0FFF1F8A
:10093000EA58FE4F608171814AE050E08FE492E016
:100940000E94F80F20C08D33E1F48FE492E00E9402
:100950007C11F601EE0FFF1FEA58FE4F7183608392
:1009600086E791E00E9472058EE691E00E946A029D
:100970006091820187E491E00E949F050E94040437
:1009800002C00E940A044AE050E060E070E08FE498
:1009900092E0FF90EF90DF90CF900C948610FF9044
:1009A000EF90DF90CF9008950F931F930E94BA0AA3
:1009B0000091420110914301209144013091450181
:1009C0006017710782079307F8F0DC01CB014096AE
:1009D000A11DB11D8093420190934301A093440156
:1009E000B09345010E94B003882331F08EE691E078
:1009F0000E9461020E94B7038EE691E00E94790294
:100A000087E491E00E940D071F910F910C94200440
:100A1000089520E030E040E0FB015191BF01842FB8
:100A200090E0851B9109482F2F5F3F4F2E303105F5
:100A300099F70895AF92BF92CF92DF92EF92FF9213
:100A40000F931F93CF93DF93CDB7DEB72F970FB6DA
:100A5000F894DEBF0FBECDBF6C018E010F5F1F4F3C
:100A6000E12CF12C5801B70185E891E00E94740750
:100A7000F80181938F01FFEFEF1AFF0A8FE0E8166C
:100A8000F10489F7B501C6010E9409059F85891304
:100A900009C08FE0F501D60101900D928A95E1F72A
:100AA00081E001C080E02F960FB6F894DEBF0FBE44
:100AB000CDBFDF91CF911F910F91FF90EF90DF900D
:100AC000CF90BF90AF900895CF93DF93EC014EE0AD
:100AD00050E062ED71E00E947815CE01DF91CF9178
:100AE0000C941A050F931F93CF93DF93EC01BC0175
:100AF0000E9409058E878E01C0E0D0E0F801419187
:100B00008F01BE0185E891E00E9477072196CF30E2
:100B1000D105A1F7DF91CF911F910F910895FC01AD
:100B200015A214A213A212A216A211A210A2089535
:100B300021E0FC0120A30895FC0110A20895FC010E
:100B400061A308950F93CF93DF93EC018EE691E0BC
:100B50000E946A02811127C081E08EA32F8D21118E
:100B60001EA239A18AA19BA130FF05C06FEF7FE0D3
:100B7000681B790B01C0BC018CA19DA131FF05C090
:100B80004FEF5FE0481B590B01C0AC0132FF06C0BC
:100B90006427752746275727642775270EA18BEAF8
:100BA00092E00E94F90DDF91CF910F9108950F937C
:100BB000FC0186A1882321F116A221A182A193A183
:100BC00020FF05C06FEF7FE0681B790B01C0BC01FF
:100BD00084A195A121FF05C04FEF5FE0481B590B91
:100BE00001C0AC0122FF06C064277527462757279E
:100BF0006427752700E020E08BEA92E00E94F90D5F
:100C00000F9108951F93CF93DF931F92CDB7DEB757
:100C1000162F68E370E086E891E049830E94490856
:100C2000612F86E891E00E94D3074981642F86E80E
:100C300091E00E94D30786E891E00F90DF91CF9179
:100C40001F910C945E08CF92DF92EF92FF92F62EE6
:100C500068E370E086E891E00E9449086F2D86E81D
:100C600091E00E94D30786E891E00E945E0841E08F
:100C700050E068E370E086E891E00E943C080E9442
:100C8000BA0A6B017C0186E891E00E947B07892B00
:100C900059F40E94BA0A6C197D098E099F09683EB1
:100CA00073408105910578F386E891E00E948307FF
:100CB000FF90EF90DF90CF9008951F93CF93DF9335
:100CC000EC011DA21CA21BA21AA21EA280918201ED
:100CD00089A318A260E083E10E943B0C60E085E1FB
:100CE0000E943B0C60E084E10E943B0C60E082E1EA
:100CF0000E943B0C60E084E00E943B0C1AE064EF31
:100D000071E080E090E00E94E90A63EACE010E946F
:100D10002306853521F0115091F718A202C01AE080
:100D200015C060E08DE00E94740C6AEF70E080E016
:100D300090E00E94E90A61E08DE00E94740C6AEF85
:100D400070E080E090E00E94E90AEBCF69EACE0112
:100D50000E9423068823C1F01150C1F718A260E059
:100D60008DE00E94740C6AEF70E080E090E00E94D9
:100D7000E90A61E08DE00E94740C6AEF70E080E0A7
:100D800090E00E94E90AEBCF81E088A343E260E8AB
:100D9000CE01DF91CF911F910C940206FF920F9329
:100DA0001F93CF93DF938C01F62EEA010E94230656
:100DB000282F30E096E0359527959A95E1F728831E
:100DC0008F701A828B8361E06F0DC8010E94230629
:100DD0002A813B81282B3B832A8362E06F0DC80167
:100DE0000E942306282F30E044E0359527954A9548
:100DF000E1F729838F701C828D8363E06F0DC8013A
:100E00000E9423062C813D81282B3D832C83DF917A
:100E1000CF911F910F91FF9008951F93CF93DF9370
:100E2000EC0188A1882309F45BC067EACE010E9427
:100E30002306182F813009F04CC062E0CE010E94D9
:100E400023069FEF980F9E3F08F040C08770FE0179
:100E50008193AF0163E0CE010E94CE068881882392
:100E6000A9F18A81811132C089818D7F79F52B8129
:100E70003C81AFEFBFE00E945E152FE133E040E020
:100E800050E00E9439153BA32AA32D813E81AFEF8C
:100E9000BFE00E945E152FED31E040E050E00E947F
:100EA00039153DA32CA361E0CE010E9423068834AE
:100EB00011F41F8F06C0893419F48FEF8F8F01C092
:100EC0001F8ECE010E94A20561E004C0CE010E94E7
:100ED000D70560E08DE0DF91CF911F910C94740CE9
:100EE000DF91CF911F910895CB010C948115CB0117
:100EF000642F0C9489158091B60190E02091B70180
:100F0000821B910908952091B7018091B60128179D
:100F100050F4E22FF0E0E854FE4F808190E02F5F24
:100F20002093B70108958FEF9FEF0895E091B701E7
:100F30008091B601E81730F4F0E0E854FE4F80816C
:100F400090E008958FEF9FEF08950895CF92DF927C
:100F5000EF92FF920F931F93CF93DF937C01CB010E
:100F60008A0120919201222389F0EB016B01C40ECA
:100F7000D51ECC15DD0569F06991D701ED91FC9185
:100F80000190F081E02DC7010995F3CF642F0E94F5
:100F90001A09C801DF91CF911F910F91FF90EF9037
:100FA000DF90CF900895CF93DF931F92CDB7DEB738
:100FB0006983209192012223D1F020919301203264
:100FC00040F021E030E0FC013383228380E090E0B8
:100FD00015C080919401E82FF0E0EB56FE4F998107
:100FE00090838F5F809394018093930105C061E0AB
:100FF000CE0101960E941A0981E090E00F90DF91E6
:10100000CF910895FC011382128248EE53E060E014
:1010100070E0448355836683778387E191E0918311
:10102000808308951092B7011092B6011092940136
:10103000109293010C9465089A01AB0160E074E290
:1010400084EF90E00E9417152051310941095109A0
:1010500056954795379527952093B8000895862F84
:10106000413208F040E268EB71E00E948308109280
:10107000B7018093B601089521E00C942F0881E018
:10108000809392016093B5011092940110929301A4
:1010900008950C943F080F93062F21E0409193018F
:1010A00065E971E08091B5010E94C7081092940132
:1010B00010929301109292010F91089561E00C94A7
:1010C0004B0886E891E00C9402081092450281E0FA
:1010D000809343021092420261E082E00E94740C0D
:1010E00061E083E00E94740CE9EBF0E080818E7F88
:1010F000808380818D7F808388E48093B80085E43D
:101100008093BC000895413208F03FC090914502A1
:101110009111FCCF91E090934502209343022FEF71
:101120002093D80110921D02240F20931C0290934B
:10113000440290914402880F892B8093440280914D
:101140004202813041F41092420280914402809325
:10115000BB0085EC01C085EE8093BC008091450208
:101160008130E1F380911D02841710F440911D023B
:101170002EE132E0FB01D9018A2F821B841718F47B
:101180008D918193F9CF842F089580E008950F9376
:10119000413208F046C0909145029111FCCF92E097
:1011A00090934502009343029FEF9093D8011092D1
:1011B0001D0240931C02FB016EE172E0DB019A2FDD
:1011C000961B941718F491919D93F9CF10924402B5
:1011D00090914402880F892B8093440280914202AF
:1011E000813041F410924202809144028093BB000E
:1011F00085EC01C085EE8093BC00222321F0809114
:1012000045028230E1F38091D8018F3F61F08091F7
:10121000D801803251F08091D801803341F483E0CD
:1012200007C081E005C080E003C082E001C084E027
:101230000F910895613298F420914502243089F489
:101240006093FA01FC018CEF91E0DC012A2F281B4E
:10125000261718F421912D93F9CF80E0089581E0AD
:10126000089582E0089585ED8093BC008091BC00D4
:1012700084FDFCCF10924502089585EC8093BC005C
:101280001092450208951F920F920FB60F921124EB
:101290002F933F934F935F936F937F938F939F937E
:1012A000AF93BF93EF93FF938091B900887F80360F
:1012B00009F49CC068F5883209F45BC090F4803171
:1012C00009F454C038F4882309F4F5C0883009F4CF
:1012D0004DC0F5C0883109F44CC0803209F45DC0BE
:1012E000EEC0803409F468C048F4803309F455C076
:1012F000883309F0E4C08093D801A8C0803509F490
:101300004FC0883509F45DC0883409F0D8C0D5C015
:10131000883909F4C6C0A8F4883709F467C038F4DE
:10132000883609F463C0803709F460C0C8C08838C3
:1013300009F4B7C0803909F45FC0803809F0BFC034
:101340005BC0803B09F485C038F4803A09F466C07C
:10135000883A09F47EC0B3C0803C09F4A6C0883C3A
:1013600009F4A3C0883B09F489C0A9C08091440254
:1013700010C090911D0280911C02981770F5E091A9
:101380001D0281E08E0F80931D02F0E0E25EFD4FB2
:1013900080818093BB0085EC85C08093D8018DC08F
:1013A000E0911D0281E08E0F80931D028091BB00B1
:1013B000F0E0E25EFD4F808390911D0280911C025F
:1013C0006DC0E0911D0281E08E0F80931D0280911F
:1013D000BB00F0E0E25EFD4F80838091430281110B
:1013E0006CC081E08093420284EA60C083E0809315
:1013F00045021092D901CFCF8091D901803208F0F7
:1014000050C0E091D90181E08E0F8093D901809185
:10141000BB00F0E0E652FE4F8083BDCF8091D90142
:10142000803230F4E091D901F0E0E652FE4F1082B4
:101430000E9433096091D90170E0E0913E02F09181
:101440003F028AED91E009951092D9010E943D0971
:1014500036C084E0809345021092FB011092FA019D
:10146000E0914002F091410209958091FA018111C9
:1014700005C081E08093FA011092FC01E091FB012C
:1014800081E08E0F8093FB01F0E0E450FE4F8081FD
:101490008093BB009091FB018091FA01981708F4AA
:1014A0007ACF85E88093BC000AC085EC8093BC00AD
:1014B0001092450204C01092D8010E943309FF9196
:1014C000EF91BF91AF919F918F917F916F915F91BC
:1014D0004F913F912F910F900FBE0F901F90189535
:1014E0001F920F920FB60F9211242F933F938F9359
:1014F0009F93AF93BF938091470290914802A09130
:101500004902B0914A023091460223E0230F2D3761
:1015100020F40196A11DB11D05C026E8230F0296F7
:10152000A11DB11D2093460280934702909348026B
:10153000A0934902B0934A0280914B0290914C02D1
:10154000A0914D02B0914E020196A11DB11D809354
:101550004B0290934C02A0934D02B0934E02BF9168
:10156000AF919F918F913F912F910F900FBE0F9050
:101570001F9018952FB7F894609147027091480218
:101580008091490290914A022FBF08953FB7F89485
:1015900080914B0290914C02A0914D02B0914E026D
:1015A00026B5A89B05C02F3F19F00196A11DB11DBE
:1015B0003FBF6627782F892F9A2F620F711D811DDB
:1015C000911D42E0660F771F881F991F4A95D1F73A
:1015D0000895CF92DF92EF92FF92CF93DF936B014A
:1015E0007C010E94C60AEB01C114D104E104F1049C
:1015F00089F00E9416150E94C60A6C1B7D0B683E7E
:10160000734090F381E0C81AD108E108F108C8518D
:10161000DC4FEACFDF91CF91FF90EF90DF90CF903A
:101620000895789484B5826084BD84B5816084BD5A
:1016300085B5826085BD85B5816085BDEEE6F0E04B
:10164000808181608083E1E8F0E0108280818260A7
:101650008083808181608083E0E8F0E08081816028
:101660008083E1E9F0E08081826080838081816015
:101670008083E0E9F0E0808181608083E1ECF0E04C
:1016800080818460808380818260808380818160AA
:101690008083E3ECF0E0808181608083E0ECF0E027
:1016A000808182608083E2ECF0E0808181608083D1
:1016B000EAE7F0E0808184608083808182608083BB
:1016C00080818160808380818068808308951F93FA
:1016D000CF93DF93182FEB0161E00E943B0C209722
:1016E00011F460E004C0CF3FD10539F461E0812FEF
:1016F000DF91CF911F910C94740CE12FF0E0EF512A
:10170000FE4F449150E0FA013197EF30F10508F0B7
:101710006CC0EA5AFF4F0C94581584B5806884BD9C
:10172000C7BD68C084B5806284BDC8BD63C08091F8
:101730008000806880938000D0938900C0938800E7
:1017400059C080918000806280938000D0938B008C
:10175000C0938A004FC08091800088608093800091
:10176000D0938D00C0938C0045C08091900080681C
:1017700080939000D0939900C09398003BC08091D3
:101780009000806280939000D0939B00C0939A0059
:1017900031C080919000886080939000D0939D002C
:1017A000C0939C0027C08091C00080688093C000D7
:1017B0008091C0008F7B8093C000C093CF001AC07F
:1017C0008091C00080628093C000C093D00012C09E
:1017D0008091C20088608093C2008091C2008B7F9C
:1017E0008093C200C093D20005C0C038D1050CF070
:1017F0007DCF77CFDF91CF911F91089590E0FC01CD
:101800003197EF30F105B0F5EB59FF4F0C945815B7
:10181000809180008F7703C0809180008F7D8093BE
:101820008000089580918000877FF9CF84B58F77FD
:1018300002C084B58F7D84BD0895809190008F771C
:1018400007C0809190008F7D03C080919000877FBA
:101850008093900008958091C0008F7703C080919D
:10186000C0008F7D8093C00008958091C200877F63
:101870008093C2000895CF93DF9390E0FC01E15084
:10188000FE4F2491FC01E35EFD4F8491882349F1D2
:1018900090E0880F991FFC01E75BFD4FA591B49183
:1018A000855C9D4FFC01C591D4919FB7611108C023
:1018B000F8948C91209582238C93888182230AC08E
:1018C000623051F4F8948C91322F309583238C93AD
:1018D0008881822B888304C0F8948C91822B8C930E
:1018E0009FBFDF91CF9108950F931F93CF93DF9305
:1018F0001F92CDB7DEB7282F30E0F901EF51FE4F30
:101900008491F901E150FE4F1491F901E35EFD4F1E
:1019100004910023C9F0882321F069830E94FE0B03
:101920006981E02FF0E0EE0FFF1FE55CFD4FA59110
:10193000B4919FB7F8948C91611103C010958123E5
:1019400001C0812B8C939FBF0F90DF91CF911F918E
:101950000F910895CF93DF931F92CDB7DEB76983C0
:10196000DC01ED91FC910280F381E02D41E050E03B
:10197000BE016F5F7F4F09950F90DF91CF91089562
:10198000CF93DF93EC018C859D8597FF05C082E0A6
:101990000E944E129D878C878C859D85DF91CF910B
:1019A000089583E00C94A214FC018485958597FD2D
:1019B00006C082E00E94F71190E00196089582E04F
:1019C0000E94F71190E00895FC018485958597FDAC
:1019D00005C02FEF3FEF35872487089582E00C94F0
:1019E0004E12CF93DF93EC0180910D01882331F0EB
:1019F00083E00E947F121816190634F081E090E00F
:101A00009B838A8380E090E0DF91CF910895FC0171
:101A100020812E5F208342E450E067E572E080E899
:101A20000C941913FC0181819081913A59F481320F
:101A300009F03CC047E050E066E071E080E00E94C1
:101A4000191343C0913291F5803239F467E070E0A8
:101A500086E091E00E944A1306C0823209F035C048
:101A6000828180930D018091060190910701A091E0
:101A70000801B0910901803B9440A105B105C1F472
:101A800080910D0180FD14C087E797E790930108CE
:101A9000809300082BE088E190E00FB6F894A895B9
:101AA000809360000FBE209360000FC080E0089517
:101AB00088E10FB6F89480936000109260000FBE2A
:101AC000A895109201081092000881E008952FEF68
:101AD0003FEFFC013587248708951092520210923F
:101AE000510288EE93E0A0E0B0E08093530290931F
:101AF0005402A0935502B093560287E291E090936E
:101B0000500280934F028FEF9FEF90935C0280937F
:101B10005B020895FF920F931F93CF93DF93EC0125
:101B2000F62EE881F9810480F581E02D09958C017C
:101B3000E881F9810680F781E02D6F2DCE010995AE
:101B4000C8019927DF91CF911F910F91FF900895C0
:101B5000FC0120812F5F208349E150E069E173E0BF
:101B600080E80C9419134AE750E062E373E080E8E0
:101B70000C941913EF92FF920F931F93CF93DF935F
:101B80001F92CDB7DEB789838B017A0141E050E027
:101B9000BE016F5F7F4F84E00E947F12A701B801F2
:101BA00084E40E947F120F90DF91CF911F910F91DB
:101BB000FF90EF900895FC0191818081813A31F48A
:101BC00081E0913091F0933089F411C0813271F449
:101BD0009B3021F4828180930F0105C09A3031F44B
:101BE000828180930E0181E00895089580E0089538
:101BF00008950F93CF93DF9300D000D000D0CDB7DE
:101C0000DEB709836A837B834C835D832E8346E042
:101C100050E0BE016F5F7F4F85E00E94BA0D2696AF
:101C20000FB6F894DEBF0FBECDBFDF91CF910F91FD
:101C3000089548E050E082E00C94BA0DCF93DF9312
:101C4000DC01683818F0E8E7E60F25C0E62FF0E081
:101C500067FF11C0E058F10981E090E001C0880FF2
:101C6000EA95EAF714969C911497982B14969C93F6
:101C70001497E0E010C0E756FD4FE491EE2309F41D
:101C800040C0E7FF08C014968C91149782601496A8
:101C90008C931497EF7716968C9116978E1741F1C7
:101CA00017968C9117978E1719F118968C91189793
:101CB0008E17F1F019968C9119978E17C9F01A9614
:101CC0008C911A978E17A1F01B968C911B978E17EB
:101CD00079F080E090E0ED01C80FD91F2E8121112D
:101CE00002C0EE8305C0019686309105A1F709C0B8
:101CF000BD016C5F7F4FCD010E94190E81E090E025
:101D000008C081E090E013969C938E93129780E038
:101D100090E0DF91CF910895683818F0E8E7E60F7A
:101D200025C0E62FF0E067FF12C0E058F10921E07E
:101D300030E001C0220FEA95EAF72095DC01149605
:101D40003C911497322314963C93E0E00FC0E75681
:101D5000FD4FE491EE2329F1E7FF08C0DC01149662
:101D60002C9114972D7F14962C93EF7720E030E080
:101D7000EE2351F0DC01A20FB31F16964C9116977B
:101D80004E1302C016961C922F5F3F4F263031052E
:101D900079F7BC016C5F7F4F0E94190E81E090E0E3
:101DA000089580E090E00895FC0116821782108665
:101DB0001186128613861482BC016C5F7F4F0C94CF
:101DC000190E1092AB021092A2021092A10287E3A8
:101DD00091E09093A00280939F02089508950E943D
:101DE000110B0E94EE0E8CEA92E00E94FA140E94FF
:101DF000BC03C0E0D0E00E94D4042097E1F30E942D
:101E00000000F9CFCF92DF92EF92FF920F931F93D2
:101E1000CF93DF936C017A01EB01E60EF71E00E031
:101E200010E0CE15DF0561F06991D601ED91FC91CE
:101E30000190F081E02DC6010995080F191FF1CF1F
:101E4000C801DF91CF911F910F91FF90EF90DF902C
:101E5000CF9008956115710581F0DB010D90002090
:101E6000E9F7AD0141505109461B570BDC01ED91DB
:101E7000FC910280F381E02D099480E090E00895C8
:101E8000EF92FF920F931F93CF93DF938C01FB018F
:101E9000C0E0D0E064917F018FEFE81AF80A662372
:101EA00061F0D801ED91FC910190F081E02DC80125
:101EB0000995C80FD91FF701EDCFCE01DF91CF9162
:101EC0001F910F91FF90EF900895DC01ED91FC912F
:101ED0000190F081E02D09940F931F93CF93DF932E
:101EE000EC016DE00E94650F8C016AE0CE010E945A
:101EF000650F800F911FDF91CF911F910F91089572
:101F00000F931F93CF93DF93EC010E94400F8C013E
:101F1000CE010E946C0F800F911FDF91CF911F9116
:101F20000F9108958F929F92AF92BF92CF92DF92BE
:101F3000EF92FF920F931F93CF93DF93CDB7DEB74E
:101F4000A1970FB6F894DEBF0FBECDBF7C01C42EA3
:101F5000E52FCB01D22E19A221E02D1510F02AE099
:101F6000D22E8E010F5D1F4F8D2C912CA12CB12CE8
:101F70006C2D7E2FA50194010E9417158C2DD29EE9
:101F800080191124015011098A3014F4805D01C0B8
:101F9000895CF8018083211531054105510521F047
:101FA000C22EE32FCA01E4CFB801C7010E942A0F55
:101FB000A1960FB6F894DEBF0FBECDBFDF91CF91D3
:101FC0001F910F91FF90EF90DF90CF90BF90AF9057
:101FD0009F908F9008952115310541F4DC01ED911A
:101FE000FC910190F081E02D642F09940C94920FE4
:101FF0000F931F93CF93DF93EC019A01AB0160E045
:1020000070E00E94EB0F8C01CE010E946C0F800FDC
:10201000911FDF91CF911F910F9108950F931F93FF
:10202000CF93DF93EC010E94BA0A688779878A8789
:102030009B87E881F9810680F781E02DCE01099523
:1020400097FF15C00E94BA0A088519852A853B8525
:10205000601B710B820B930B0C811D812E813F81C4
:10206000601771078207930720F38FEF9FEFDF91CF
:10207000CF911F910F9108950F931F93CF93DF93EB
:10208000EC010E94BA0A688779878A879B87E88172
:10209000F9810084F185E02DCE01099597FF15C0E7
:1020A0000E94BA0A088519852A853B85601B710B39
:1020B000820B930B0C811D812E813F81601771076C
:1020C0008207930720F38FEF9FEFDF91CF911F914E
:1020D0000F910895CF93DF93EC01CE010E943C1045
:1020E00097FD11C08D32910571F09C01205331098B
:1020F0002A30310540F0E881F9810680F781E02D32
:10210000CE010995EACFDF91CF910895FC01448378
:1021100055836683778308956F927F928F929F9203
:10212000AF92BF92CF92DF92EF92FF920F931F93E5
:10213000CF93DF935C016B014A013901FB01808180
:102140008823E9F1E12CF12CC0E0D0E0C5010E9428
:102150000E10181619068CF5F601EC0FFD1F2081E4
:10216000332727FD30958217930711F0C0E0D0E0A8
:10217000F601EC0FFD1F2081332727FD30958217D4
:10218000930721F42196C815D905C8F40115110546
:1021900089F0F301EE0DFF1D2081332727FD3095D7
:1021A0008217930739F4FFEFEF1AFF0AE016F106E2
:1021B00068F203C0E12CF12CC9CF80E001C081E0BE
:1021C000DF91CF911F910F91FF90EF90DF90CF9013
:1021D000BF90AF909F908F907F906F9008950F93D6
:1021E0001F939A01FA0101900020E9F78F01015035
:1021F0001109041B150BFB0101900020E9F7AF0149
:1022000041505109461B570B0E948C101F910F9192
:10221000089542E151E00C94EF10CF92DF92FF92CB
:102220000F931F93CF93DF9300D000D0CDB7DEB7CD
:102230006C01062F0E946A10FC0197FD4BC020E044
:1022400030E0A901F12C112707FD1095E017F107E7
:10225000E9F0ED32F105C1F0CF01C0970A97B0F473
:10226000AAE0B0E00E946D159B01AC01CF01AA2746
:1022700097FDA095BA2F280F391F4A1F5B1F2053C7
:1022800031094109510902C0FF24F394D601ED91AF
:10229000FC910680F781E02DC60129833A834B83A8
:1022A0005C830995C6010E943C10FC01C0972981FE
:1022B0003A814B815C810A9748F2E017F10731F2CD
:1022C000FF2061F066277727CB01621B730B840B1D
:1022D000950B06C060E070E0CB0102C0CA01B901F5
:1022E0000F900F900F900F90DF91CF911F910F9152
:1022F000FF90DF90CF90089561E00C940D11409114
:10230000B0025091B1022091AE023091AF0242175B
:102310005307B4F49091E8009570E1F39091E800D0
:1023200092FD19C08093F1008091B0029091B102AA
:1023300001968F739927892B19F48EEF8093E8000B
:102340008091B0029091B10201969093B102809376
:10235000B00281E0089580E00895CF92DF92FF926D
:102360000F931F93CF93DF931F92CDB7DEB7082F44
:10237000162F862F880F8E5F99830E947F1183E02E
:102380000E947F11F02EC02E9981D92E8C2D8F198D
:10239000811778F4F60184910E947F11082F80E064
:1023A0000E947F118023FFEFCF1ADF0A8111EECF49
:1023B00001C081E00F90DF91CF911F910F91FF90AD
:1023C000DF90CF900895615030F02091F100FC0132
:1023D00020830196F8CF84E68093B30208952FB747
:1023E000FC012083F89467706093E9000895CF930F
:1023F000DF931F92CDB7DEB7682FCE0101960E9402
:10240000EF118091F20099819FBF0F90DF91CF91E2
:102410000895FF920F931F93CF93DF9300D0CDB712
:10242000DEB7F62E8A019091B202992311F057FF80
:1024300003C08FEF9FEF2AC0682FCE0101967A83E9
:102440000E94EF118091F20090E0A8017A8180173C
:1024500091070CF4AC01EF2DF72FF40E84E6FE1675
:1024600031F08093B3029091F1009193F8CF411530
:10247000510521F08091F200882321F089818FBFDE
:10248000CA0104C08BE68093E800F8CF0F900F904C
:10249000DF91CF911F910F91FF900895CF93DF931C
:1024A0001F92CDB7DEB741E050E0BE016F5F7F4FB6
:1024B0000E940912019719F4898190E002C08FEF00
:1024C0009FEF0F90DF91CF910895CF93DF931F92ED
:1024D000CDB7DEB7682FCE0101960E94EF11909123
:1024E000E800892F807295FF04C09091F20080E48B
:1024F000891B99819FBF0F90DF91CF9108956F92B3
:102500007F928F929F92AF92BF92CF92DF92EF9283
:10251000FF920F931F93CF93DF931F92CDB7DEB738
:10252000782E7B01C42EB52E8091B202882369F0EB
:10253000042F152F8AEFD82E872D8072982E9AE3BC
:10254000A92E872D8074882E11C08FEF9FEF56C063
:10255000872D0E946512682E81110CC0DA94A9F3B0
:1025600061E070E080E090E00E94E90A0115110549
:1025700079F73BC0282F30E0021713070CF4602EC8
:10258000672DCE0101960E94EF118091E80085FF32
:1025900029C0262D30E0021B130B992039F06A94D4
:1025A0008FEF6816B1F01092F100F9CFF701862D88
:1025B00077FE07C0815058F094919093F1003196C6
:1025C000F9CF815020F091919093F100FACFE20E73
:1025D000F31E8091E80085FF0EC00115110511F46E
:1025E000811009C089818FBFC1CF84E68093B40276
:1025F0008C2D9B2D03C0A092E800F4CF0F90DF91AB
:10260000CF911F910F91FF90EF90DF90CF90BF90EF
:10261000AF909F908F907F906F9008951092E900F7
:102620001092B1021092B0029093AF028093AE026A
:102630000895CF92DF92FF920F931F93CF93DF9372
:1026400000D0CDB7DEB7F82E8A016B010115110558
:10265000B1F0F601F7FE02C0849101C08081498388
:102660005A830E947F1101501109FFEFCF1ADF0A30
:1026700049815A818111EACF8FEF9FEF01C0CA01D2
:102680000F900F90DF91CF911F910F91FF90DF90EE
:10269000CF9008951F93CF93DF931F92CDB7DEB7EE
:1026A000162F2091E80022FFFCCF612F79830E9432
:1026B000E3118BEF8093E800812F7981972F0F90A2
:1026C000DF91CF911F910895CF93DF931F92CDB7E4
:1026D000DEB71982CE0101960E94070DCE01019648
:1026E0000E94A80D898190E00F90DF91CF9108950D
:1026F0001F920F920FB60F921124EF92FF920F9339
:102700001F932F933F934F935F936F937F938F9379
:102710009F93AF93BF93EF93FF93CF93DF93CDB787
:10272000DEB76297DEBFCDBF1092E9008091E8006E
:1027300083FFEBC068E0CE010A960E94E31182EFAE
:102740008093E8009A8597FF05C08091E80080FF9C
:10275000FCCF03C08EEF8093E800892F807609F0CC
:10276000B9C08B85811105C01092F1001092F10063
:10277000C5C0282F2D7F213009F4C0C0853049F411
:102780008091E80080FFFCCF8C8580688093E30017
:10279000B5C0863009F076C02D85E888F9882230EA
:1027A00071F580E090E02A8B0E940E130E94641362
:1027B00099E08E010F5F1F4FF801392F11923A9562
:1027C000E9F799832A892A8391E09E8390E8988784
:1027D0009AEF99872091B0023091B102275F3F4F65
:1027E0003C832B838D83C7010E940E1349E050E088
:1027F000B80180E00E9419130E9464137FC0C701D2
:102800002A8B0E940E132A89223241F482E290E040
:102810000E94B30D892B09F071C074C0213069F496
:1028200088899989089711F42093AD028091AD02AF
:10283000811118C063EC73E01AC0233009F062C044
:102840008C85882391F0823021F46CE080EE93E057
:1028500006C0813009F056C06AE085ED93E00E9421
:10286000AD114AC061EB73E002C06DEE73E061151B
:10287000710509F447C0FB01449150E080E80E94D3
:1028800019133CC0873009F43DC0883021F481E041
:102890008093F10033C0893089F5937099F5EDEAA2
:1028A000F3E081E021E096E38093E9002093EB00E0
:1028B00034913093EC009093ED008F5F319685302A
:1028C00099F78EE78093EA001092EA008C85809356
:1028D000B20214C0888999890E940E138E858111D5
:1028E00005C0CE010A960E94120D06C0823051F436
:1028F000CE010A960E94DB0D882321F08EEF809393
:10290000E80003C081E28093EB0062960FB6F89472
:10291000DEBF0FBECDBFDF91CF91FF91EF91BF9191
:10292000AF919F918F917F916F915F914F913F9167
:102930002F911F910F91FF90EF900F900FBE0F906E
:102940001F9018958093E9008091F200882319F078
:102950008AE38093E80008951F920F920FB60F92BA
:1029600011242F933F934F935F936F937F938F9394
:102970009F93AF93BF93EF93FF938091E1001092E9
:10298000E10083FF0FC01092E90091E09093EB000B
:102990001092EC0092E39093ED001092B20298E056
:1029A0009093F00082FF15C083E00E94A2148091F2
:1029B000B402882329F08091B40281508093B4023C
:1029C0008091B302882329F08091B30281508093D3
:1029D000B302FF91EF91BF91AF919F918F917F9142
:1029E0006F915F914F913F912F910F900FBE0F907C
:1029F0001F9018951092B20281E08093D70080EA70
:102A00008093D80082E189BD09B400FEFDCF61E06A
:102A100070E080E090E00E94E90A80E98093D800AD
:102A20008CE08093E2001092E00008950895A1E206
:102A30001A2EAA1BBB1BFD010DC0AA1FBB1FEE1F38
:102A4000FF1FA217B307E407F50720F0A21BB30B83
:102A5000E40BF50B661F771F881F991F1A9469F7FF
:102A600060957095809590959B01AC01BD01CF015B
:102A70000895052E97FB1EF400940E94501557FDF3
:102A800007D00E94171507FC03D04EF40C94501584
:102A900050954095309521953F4F4F4F5F4F08958A
:102AA00090958095709561957F4F8F4F9F4F0895BA
:102AB000EE0FFF1F0590F491E02D0994A29FB00145
:102AC000B39FC001A39F700D811D1124911DB29F62
:102AD000700D811D1124911D08950E945E15A59F02
:102AE000900DB49F900DA49F800D911D1124089509
:102AF000FB01DC0102C005900D9241505040D8F717
:102B00000895F999FECF92BD81BDF89A992780B5B5
:102B10000895262FF999FECF1FBA92BD81BD20BD21
:102B20000FB6F894FA9AF99A0FBE01960895F894A0
:022B3000FFCFD5
:102B32000000B502800000E1000000000000010179
:102B420041540000000000D307A6077B07830796C5
:102B520007A50700000000AA0CF10CD40CE40CC07D
:102B62000CD10C000000008A0D020F1E0E8C0ED438
:022B72000E0053
:00000001FF
